{
  "_format": "hh-sol-artifact-1",
  "contractName": "Blems",
  "sourceName": "contracts/Blems.sol",
  "abi": [
    {
      "inputs": [],
      "stateMutability": "nonpayable",
      "type": "constructor"
    },
    {
      "anonymous": false,
      "inputs": [
        {
          "indexed": false,
          "internalType": "string",
          "name": "caseNo",
          "type": "string"
        },
        {
          "indexed": false,
          "internalType": "string",
          "name": "casedescription",
          "type": "string"
        },
        {
          "indexed": false,
          "internalType": "uint256",
          "name": "no_participants",
          "type": "uint256"
        },
        {
          "indexed": false,
          "internalType": "address[]",
          "name": "participants",
          "type": "address[]"
        }
      ],
      "name": "CaseAdded",
      "type": "event"
    },
    {
      "anonymous": false,
      "inputs": [
        {
          "indexed": false,
          "internalType": "uint256",
          "name": "itemNo",
          "type": "uint256"
        },
        {
          "indexed": false,
          "internalType": "string",
          "name": "caseNo",
          "type": "string"
        },
        {
          "indexed": false,
          "internalType": "string",
          "name": "description",
          "type": "string"
        },
        {
          "indexed": false,
          "internalType": "string",
          "name": "evidence_cid",
          "type": "string"
        },
        {
          "indexed": false,
          "internalType": "address",
          "name": "uploader",
          "type": "address"
        },
        {
          "indexed": false,
          "internalType": "uint256",
          "name": "timestamp",
          "type": "uint256"
        }
      ],
      "name": "EvidenceAdded",
      "type": "event"
    },
    {
      "anonymous": false,
      "inputs": [
        {
          "indexed": false,
          "internalType": "string",
          "name": "ipfs_hash",
          "type": "string"
        },
        {
          "indexed": false,
          "internalType": "address",
          "name": "downloader",
          "type": "address"
        },
        {
          "indexed": false,
          "internalType": "uint256",
          "name": "timestamp",
          "type": "uint256"
        }
      ],
      "name": "EvidenceDownloaded",
      "type": "event"
    },
    {
      "anonymous": false,
      "inputs": [
        {
          "indexed": false,
          "internalType": "string",
          "name": "transactionType",
          "type": "string"
        },
        {
          "indexed": false,
          "internalType": "address",
          "name": "userAddress",
          "type": "address"
        },
        {
          "indexed": false,
          "internalType": "uint256",
          "name": "timestamp",
          "type": "uint256"
        },
        {
          "indexed": false,
          "internalType": "string",
          "name": "status",
          "type": "string"
        }
      ],
      "name": "NewTransaction",
      "type": "event"
    },
    {
      "anonymous": false,
      "inputs": [
        {
          "indexed": false,
          "internalType": "string",
          "name": "title",
          "type": "string"
        },
        {
          "indexed": false,
          "internalType": "string",
          "name": "caseNumber",
          "type": "string"
        },
        {
          "indexed": false,
          "internalType": "string",
          "name": "description",
          "type": "string"
        },
        {
          "indexed": false,
          "internalType": "string",
          "name": "file_hash",
          "type": "string"
        }
      ],
      "name": "ReportAdded",
      "type": "event"
    },
    {
      "inputs": [
        {
          "internalType": "uint256",
          "name": "_itemNo",
          "type": "uint256"
        },
        {
          "internalType": "string",
          "name": "_caseNumber",
          "type": "string"
        },
        {
          "internalType": "string",
          "name": "_description",
          "type": "string"
        },
        {
          "internalType": "string",
          "name": "_location_Collection",
          "type": "string"
        },
        {
          "internalType": "string",
          "name": "_evidenceCID",
          "type": "string"
        }
      ],
      "name": "addEvidence",
      "outputs": [],
      "stateMutability": "nonpayable",
      "type": "function"
    },
    {
      "inputs": [
        {
          "internalType": "string",
          "name": "_caseNo",
          "type": "string"
        },
        {
          "internalType": "string",
          "name": "_caseDescription",
          "type": "string"
        },
        {
          "internalType": "uint256",
          "name": "_noParticipants",
          "type": "uint256"
        },
        {
          "internalType": "address[]",
          "name": "_participants",
          "type": "address[]"
        }
      ],
      "name": "addNewCase",
      "outputs": [],
      "stateMutability": "nonpayable",
      "type": "function"
    },
    {
      "inputs": [
        {
          "internalType": "string",
          "name": "_name",
          "type": "string"
        },
        {
          "internalType": "address",
          "name": "_useraddress",
          "type": "address"
        },
        {
          "internalType": "string",
          "name": "_position",
          "type": "string"
        }
      ],
      "name": "addUser",
      "outputs": [],
      "stateMutability": "nonpayable",
      "type": "function"
    },
    {
      "inputs": [
        {
          "internalType": "uint256",
          "name": "",
          "type": "uint256"
        }
      ],
      "name": "caseArray",
      "outputs": [
        {
          "internalType": "string",
          "name": "case_no",
          "type": "string"
        },
        {
          "internalType": "string",
          "name": "case_description",
          "type": "string"
        },
        {
          "internalType": "address",
          "name": "addedBy",
          "type": "address"
        },
        {
          "internalType": "uint256",
          "name": "dateAdded",
          "type": "uint256"
        },
        {
          "internalType": "uint256",
          "name": "no_participants",
          "type": "uint256"
        }
      ],
      "stateMutability": "view",
      "type": "function"
    },
    {
      "inputs": [
        {
          "internalType": "string",
          "name": "",
          "type": "string"
        },
        {
          "internalType": "uint256",
          "name": "",
          "type": "uint256"
        }
      ],
      "name": "caseMapping",
      "outputs": [
        {
          "internalType": "uint256",
          "name": "item_Number",
          "type": "uint256"
        },
        {
          "internalType": "string",
          "name": "case_number",
          "type": "string"
        },
        {
          "internalType": "uint256",
          "name": "dateCollected",
          "type": "uint256"
        },
        {
          "internalType": "address",
          "name": "collector",
          "type": "address"
        },
        {
          "internalType": "string",
          "name": "evidence_description",
          "type": "string"
        },
        {
          "internalType": "string",
          "name": "collection_location",
          "type": "string"
        },
        {
          "internalType": "string",
          "name": "evidenceCID",
          "type": "string"
        }
      ],
      "stateMutability": "view",
      "type": "function"
    },
    {
      "inputs": [
        {
          "internalType": "string",
          "name": "",
          "type": "string"
        },
        {
          "internalType": "uint256",
          "name": "",
          "type": "uint256"
        }
      ],
      "name": "caseReportMapping",
      "outputs": [
        {
          "internalType": "string",
          "name": "title",
          "type": "string"
        },
        {
          "internalType": "string",
          "name": "caseNumber",
          "type": "string"
        },
        {
          "internalType": "string",
          "name": "description",
          "type": "string"
        },
        {
          "internalType": "string",
          "name": "file_hash",
          "type": "string"
        }
      ],
      "stateMutability": "view",
      "type": "function"
    },
    {
      "inputs": [],
      "name": "countUsersByPosition",
      "outputs": [
        {
          "internalType": "uint256",
          "name": "judgeCount",
          "type": "uint256"
        },
        {
          "internalType": "uint256",
          "name": "forensicCount",
          "type": "uint256"
        },
        {
          "internalType": "uint256",
          "name": "lawEnforcementCount",
          "type": "uint256"
        },
        {
          "internalType": "uint256",
          "name": "prosecutorCount",
          "type": "uint256"
        }
      ],
      "stateMutability": "view",
      "type": "function"
    },
    {
      "inputs": [
        {
          "internalType": "uint256",
          "name": "",
          "type": "uint256"
        }
      ],
      "name": "evidenceArray",
      "outputs": [
        {
          "internalType": "uint256",
          "name": "item_Number",
          "type": "uint256"
        },
        {
          "internalType": "string",
          "name": "case_number",
          "type": "string"
        },
        {
          "internalType": "uint256",
          "name": "dateCollected",
          "type": "uint256"
        },
        {
          "internalType": "address",
          "name": "collector",
          "type": "address"
        },
        {
          "internalType": "string",
          "name": "evidence_description",
          "type": "string"
        },
        {
          "internalType": "string",
          "name": "collection_location",
          "type": "string"
        },
        {
          "internalType": "string",
          "name": "evidenceCID",
          "type": "string"
        }
      ],
      "stateMutability": "view",
      "type": "function"
    },
    {
      "inputs": [],
      "name": "getAllEvidence",
      "outputs": [
        {
          "components": [
            {
              "internalType": "uint256",
              "name": "item_Number",
              "type": "uint256"
            },
            {
              "internalType": "string",
              "name": "case_number",
              "type": "string"
            },
            {
              "internalType": "uint256",
              "name": "dateCollected",
              "type": "uint256"
            },
            {
              "internalType": "address",
              "name": "collector",
              "type": "address"
            },
            {
              "internalType": "string",
              "name": "evidence_description",
              "type": "string"
            },
            {
              "internalType": "string",
              "name": "collection_location",
              "type": "string"
            },
            {
              "internalType": "string",
              "name": "evidenceCID",
              "type": "string"
            }
          ],
          "internalType": "struct Blems.Evidence[]",
          "name": "",
          "type": "tuple[]"
        }
      ],
      "stateMutability": "view",
      "type": "function"
    },
    {
      "inputs": [
        {
          "internalType": "string",
          "name": "_caseNumber",
          "type": "string"
        }
      ],
      "name": "getCaseTxns",
      "outputs": [
        {
          "components": [
            {
              "internalType": "string",
              "name": "transactionType",
              "type": "string"
            },
            {
              "internalType": "string",
              "name": "caseNumber",
              "type": "string"
            },
            {
              "internalType": "address",
              "name": "userAddress",
              "type": "address"
            },
            {
              "internalType": "uint256",
              "name": "timestamp",
              "type": "uint256"
            },
            {
              "internalType": "string",
              "name": "status",
              "type": "string"
            }
          ],
          "internalType": "struct Blems.Transaction[]",
          "name": "",
          "type": "tuple[]"
        }
      ],
      "stateMutability": "view",
      "type": "function"
    },
    {
      "inputs": [
        {
          "internalType": "string",
          "name": "_casenumber",
          "type": "string"
        }
      ],
      "name": "getEvidence",
      "outputs": [
        {
          "components": [
            {
              "internalType": "uint256",
              "name": "item_Number",
              "type": "uint256"
            },
            {
              "internalType": "string",
              "name": "case_number",
              "type": "string"
            },
            {
              "internalType": "uint256",
              "name": "dateCollected",
              "type": "uint256"
            },
            {
              "internalType": "address",
              "name": "collector",
              "type": "address"
            },
            {
              "internalType": "string",
              "name": "evidence_description",
              "type": "string"
            },
            {
              "internalType": "string",
              "name": "collection_location",
              "type": "string"
            },
            {
              "internalType": "string",
              "name": "evidenceCID",
              "type": "string"
            }
          ],
          "internalType": "struct Blems.Evidence[]",
          "name": "",
          "type": "tuple[]"
        }
      ],
      "stateMutability": "view",
      "type": "function"
    },
    {
      "inputs": [
        {
          "internalType": "string",
          "name": "_caseNumber",
          "type": "string"
        }
      ],
      "name": "getReport",
      "outputs": [
        {
          "components": [
            {
              "internalType": "string",
              "name": "title",
              "type": "string"
            },
            {
              "internalType": "string",
              "name": "caseNumber",
              "type": "string"
            },
            {
              "internalType": "string",
              "name": "description",
              "type": "string"
            },
            {
              "internalType": "string",
              "name": "file_hash",
              "type": "string"
            }
          ],
          "internalType": "struct Blems.Report[]",
          "name": "",
          "type": "tuple[]"
        }
      ],
      "stateMutability": "view",
      "type": "function"
    },
    {
      "inputs": [],
      "name": "getUsers",
      "outputs": [
        {
          "components": [
            {
              "internalType": "string",
              "name": "name",
              "type": "string"
            },
            {
              "internalType": "address",
              "name": "userAddress",
              "type": "address"
            },
            {
              "internalType": "string",
              "name": "position",
              "type": "string"
            }
          ],
          "internalType": "struct Blems.User[]",
          "name": "",
          "type": "tuple[]"
        }
      ],
      "stateMutability": "view",
      "type": "function"
    },
    {
      "inputs": [
        {
          "internalType": "address",
          "name": "_useraddress",
          "type": "address"
        }
      ],
      "name": "getmyCase",
      "outputs": [
        {
          "components": [
            {
              "internalType": "string",
              "name": "case_no",
              "type": "string"
            },
            {
              "internalType": "string",
              "name": "case_description",
              "type": "string"
            },
            {
              "internalType": "address",
              "name": "addedBy",
              "type": "address"
            },
            {
              "internalType": "uint256",
              "name": "dateAdded",
              "type": "uint256"
            },
            {
              "internalType": "uint256",
              "name": "no_participants",
              "type": "uint256"
            },
            {
              "internalType": "address[]",
              "name": "participants",
              "type": "address[]"
            }
          ],
          "internalType": "struct Blems.Case[]",
          "name": "",
          "type": "tuple[]"
        }
      ],
      "stateMutability": "view",
      "type": "function"
    },
    {
      "inputs": [],
      "name": "i_owner",
      "outputs": [
        {
          "internalType": "address",
          "name": "",
          "type": "address"
        }
      ],
      "stateMutability": "view",
      "type": "function"
    },
    {
      "inputs": [
        {
          "internalType": "address",
          "name": "add",
          "type": "address"
        }
      ],
      "name": "login",
      "outputs": [
        {
          "internalType": "string",
          "name": "",
          "type": "string"
        },
        {
          "internalType": "string",
          "name": "",
          "type": "string"
        }
      ],
      "stateMutability": "view",
      "type": "function"
    },
    {
      "inputs": [
        {
          "internalType": "uint256",
          "name": "",
          "type": "uint256"
        }
      ],
      "name": "reportsArray",
      "outputs": [
        {
          "internalType": "string",
          "name": "title",
          "type": "string"
        },
        {
          "internalType": "string",
          "name": "caseNumber",
          "type": "string"
        },
        {
          "internalType": "string",
          "name": "description",
          "type": "string"
        },
        {
          "internalType": "string",
          "name": "file_hash",
          "type": "string"
        }
      ],
      "stateMutability": "view",
      "type": "function"
    },
    {
      "inputs": [
        {
          "internalType": "uint256",
          "name": "",
          "type": "uint256"
        }
      ],
      "name": "transactionsArray",
      "outputs": [
        {
          "internalType": "string",
          "name": "transactionType",
          "type": "string"
        },
        {
          "internalType": "string",
          "name": "caseNumber",
          "type": "string"
        },
        {
          "internalType": "address",
          "name": "userAddress",
          "type": "address"
        },
        {
          "internalType": "uint256",
          "name": "timestamp",
          "type": "uint256"
        },
        {
          "internalType": "string",
          "name": "status",
          "type": "string"
        }
      ],
      "stateMutability": "view",
      "type": "function"
    },
    {
      "inputs": [
        {
          "internalType": "string",
          "name": "_title",
          "type": "string"
        },
        {
          "internalType": "string",
          "name": "_description",
          "type": "string"
        },
        {
          "internalType": "string",
          "name": "_caseNumber",
          "type": "string"
        },
        {
          "internalType": "string",
          "name": "_fileHash",
          "type": "string"
        }
      ],
      "name": "uploadReport",
      "outputs": [],
      "stateMutability": "nonpayable",
      "type": "function"
    },
    {
      "inputs": [
        {
          "internalType": "uint256",
          "name": "",
          "type": "uint256"
        }
      ],
      "name": "userArray",
      "outputs": [
        {
          "internalType": "string",
          "name": "name",
          "type": "string"
        },
        {
          "internalType": "address",
          "name": "userAddress",
          "type": "address"
        },
        {
          "internalType": "string",
          "name": "position",
          "type": "string"
        }
      ],
      "stateMutability": "view",
      "type": "function"
    },
    {
      "inputs": [
        {
          "internalType": "address",
          "name": "",
          "type": "address"
        }
      ],
      "name": "userMapping",
      "outputs": [
        {
          "internalType": "string",
          "name": "name",
          "type": "string"
        },
        {
          "internalType": "address",
          "name": "userAddress",
          "type": "address"
        },
        {
          "internalType": "string",
          "name": "position",
          "type": "string"
        }
      ],
      "stateMutability": "view",
      "type": "function"
    },
    {
      "inputs": [
        {
          "internalType": "address",
          "name": "",
          "type": "address"
        },
        {
          "internalType": "uint256",
          "name": "",
          "type": "uint256"
        }
      ],
      "name": "user_CaseMapping",
      "outputs": [
        {
          "internalType": "string",
          "name": "case_no",
          "type": "string"
        },
        {
          "internalType": "string",
          "name": "case_description",
          "type": "string"
        },
        {
          "internalType": "address",
          "name": "addedBy",
          "type": "address"
        },
        {
          "internalType": "uint256",
          "name": "dateAdded",
          "type": "uint256"
        },
        {
          "internalType": "uint256",
          "name": "no_participants",
          "type": "uint256"
        }
      ],
      "stateMutability": "view",
      "type": "function"
    }
  ],
  "bytecode": "0x60806040523480156200001157600080fd5b50336000806101000a81548173ffffffffffffffffffffffffffffffffffffffff021916908373ffffffffffffffffffffffffffffffffffffffff1602179055506040518060400160405280600581526020017f61646d696e000000000000000000000000000000000000000000000000000000815250600660008060009054906101000a900473ffffffffffffffffffffffffffffffffffffffff1673ffffffffffffffffffffffffffffffffffffffff1673ffffffffffffffffffffffffffffffffffffffff1681526020019081526020016000206002019081620000f991906200037a565b5062000461565b600081519050919050565b7f4e487b7100000000000000000000000000000000000000000000000000000000600052604160045260246000fd5b7f4e487b7100000000000000000000000000000000000000000000000000000000600052602260045260246000fd5b600060028204905060018216806200018257607f821691505b6020821081036200019857620001976200013a565b5b50919050565b60008190508160005260206000209050919050565b60006020601f8301049050919050565b600082821b905092915050565b600060088302620002027fffffffffffffffffffffffffffffffffffffffffffffffffffffffffffffffff82620001c3565b6200020e8683620001c3565b95508019841693508086168417925050509392505050565b6000819050919050565b6000819050919050565b60006200025b620002556200024f8462000226565b62000230565b62000226565b9050919050565b6000819050919050565b62000277836200023a565b6200028f620002868262000262565b848454620001d0565b825550505050565b600090565b620002a662000297565b620002b38184846200026c565b505050565b5b81811015620002db57620002cf6000826200029c565b600181019050620002b9565b5050565b601f8211156200032a57620002f4816200019e565b620002ff84620001b3565b810160208510156200030f578190505b620003276200031e85620001b3565b830182620002b8565b50505b505050565b600082821c905092915050565b60006200034f600019846008026200032f565b1980831691505092915050565b60006200036a83836200033c565b9150826002028217905092915050565b620003858262000100565b67ffffffffffffffff811115620003a157620003a06200010b565b5b620003ad825462000169565b620003ba828285620002df565b600060209050601f831160018114620003f25760008415620003dd578287015190505b620003e985826200035c565b86555062000459565b601f19841662000402866200019e565b60005b828110156200042c5784890151825560018201915060208501945060208101905062000405565b868310156200044c578489015162000448601f8916826200033c565b8355505b6001600288020188555050505b505050505050565b61558f80620004716000396000f3fe608060405234801561001057600080fd5b50600436106101415760003560e01c806388aae880116100b8578063d4b317311161007c578063d4b3173114610401578063dba6335f1461041d578063e210ecee1461043b578063ebdcbbf51461046f578063f51097cd146104a3578063f8adfe45146104c457610141565b806388aae8801461032e5780639767d4b314610364578063aef8242814610397578063b16c6ee7146103b3578063c22cf017146103e357610141565b8063383684591161010a578063383684591461022a57806341209af1146102465780634b21f46f146102785780635bce1722146102a857806365e6b6bf146102c45780636615df5f146102f857610141565b8062ce8e3e14610146578063118b953514610164578063122585701461019657806312e63d71146101c957806335a6861a146101f9575b600080fd5b61014e6104f4565b60405161015b9190613d6b565b60405180910390f35b61017e60048036038101906101799190613dcd565b6106cd565b60405161018d93929190613e53565b60405180910390f35b6101b060048036038101906101ab9190614003565b610827565b6040516101c0949392919061405f565b60405180910390f35b6101e360048036038101906101de91906140c0565b610aaa565b6040516101f09190614243565b60405180910390f35b610213600480360381019061020e9190613dcd565b610d6f565b604051610221929190614265565b60405180910390f35b610244600480360381019061023f9190614364565b610f4e565b005b610260600480360381019061025b919061441f565b6113f3565b60405161026f93929190613e53565b60405180910390f35b610292600480360381019061028d9190613dcd565b61155d565b60405161029f9190614663565b60405180910390f35b6102c260048036038101906102bd9190614685565b611817565b005b6102de60048036038101906102d9919061441f565b611ba7565b6040516102ef95949392919061476b565b60405180910390f35b610312600480360381019061030d9190614003565b611d1d565b60405161032597969594939291906147cc565b60405180910390f35b6103486004803603810190610343919061441f565b611fd2565b60405161035b97969594939291906147cc565b60405180910390f35b61037e6004803603810190610379919061441f565b612264565b60405161038e949392919061405f565b60405180910390f35b6103b160048036038101906103ac9190614857565b6124c4565b005b6103cd60048036038101906103c891906140c0565b612937565b6040516103da9190614ab5565b60405180910390f35b6103eb612c66565b6040516103f89190614ab5565b60405180910390f35b61041b60048036038101906104169190614ad7565b612f77565b005b61042561310d565b6040516104329190614b62565b60405180910390f35b6104556004803603810190610450919061441f565b613131565b604051610466959493929190614b7d565b60405180910390f35b61048960048036038101906104849190614be5565b61332f565b60405161049a95949392919061476b565b60405180910390f35b6104ab6134b2565b6040516104bb9493929190614c25565b60405180910390f35b6104de60048036038101906104d991906140c0565b613701565b6040516104eb9190614db0565b60405180910390f35b60606001805480602002602001604051908101604052809291908181526020016000905b828210156106c4578382906000526020600020906003020160405180606001604052908160008201805461054b90614e01565b80601f016020809104026020016040519081016040528092919081815260200182805461057790614e01565b80156105c45780601f10610599576101008083540402835291602001916105c4565b820191906000526020600020905b8154815290600101906020018083116105a757829003601f168201915b505050505081526020016001820160009054906101000a900473ffffffffffffffffffffffffffffffffffffffff1673ffffffffffffffffffffffffffffffffffffffff1673ffffffffffffffffffffffffffffffffffffffff16815260200160028201805461063390614e01565b80601f016020809104026020016040519081016040528092919081815260200182805461065f90614e01565b80156106ac5780601f10610681576101008083540402835291602001916106ac565b820191906000526020600020905b81548152906001019060200180831161068f57829003601f168201915b50505050508152505081526020019060010190610518565b50505050905090565b60066020528060005260406000206000915090508060000180546106f090614e01565b80601f016020809104026020016040519081016040528092919081815260200182805461071c90614e01565b80156107695780601f1061073e57610100808354040283529160200191610769565b820191906000526020600020905b81548152906001019060200180831161074c57829003601f168201915b5050505050908060010160009054906101000a900473ffffffffffffffffffffffffffffffffffffffff16908060020180546107a490614e01565b80601f01602080910402602001604051908101604052809291908181526020018280546107d090614e01565b801561081d5780601f106107f25761010080835404028352916020019161081d565b820191906000526020600020905b81548152906001019060200180831161080057829003601f168201915b5050505050905083565b600982805160208101820180518482526020830160208501208183528095505050505050818154811061085957600080fd5b90600052602060002090600402016000915091505080600001805461087d90614e01565b80601f01602080910402602001604051908101604052809291908181526020018280546108a990614e01565b80156108f65780601f106108cb576101008083540402835291602001916108f6565b820191906000526020600020905b8154815290600101906020018083116108d957829003601f168201915b50505050509080600101805461090b90614e01565b80601f016020809104026020016040519081016040528092919081815260200182805461093790614e01565b80156109845780601f1061095957610100808354040283529160200191610984565b820191906000526020600020905b81548152906001019060200180831161096757829003601f168201915b50505050509080600201805461099990614e01565b80601f01602080910402602001604051908101604052809291908181526020018280546109c590614e01565b8015610a125780601f106109e757610100808354040283529160200191610a12565b820191906000526020600020905b8154815290600101906020018083116109f557829003601f168201915b505050505090806003018054610a2790614e01565b80601f0160208091040260200160405190810160405280929190818152602001828054610a5390614e01565b8015610aa05780601f10610a7557610100808354040283529160200191610aa0565b820191906000526020600020905b815481529060010190602001808311610a8357829003601f168201915b5050505050905084565b6060600982604051610abc9190614e6e565b9081526020016040518091039020805480602002602001604051908101604052809291908181526020016000905b82821015610d645783829060005260206000209060040201604051806080016040529081600082018054610b1d90614e01565b80601f0160208091040260200160405190810160405280929190818152602001828054610b4990614e01565b8015610b965780601f10610b6b57610100808354040283529160200191610b96565b820191906000526020600020905b815481529060010190602001808311610b7957829003601f168201915b50505050508152602001600182018054610baf90614e01565b80601f0160208091040260200160405190810160405280929190818152602001828054610bdb90614e01565b8015610c285780601f10610bfd57610100808354040283529160200191610c28565b820191906000526020600020905b815481529060010190602001808311610c0b57829003601f168201915b50505050508152602001600282018054610c4190614e01565b80601f0160208091040260200160405190810160405280929190818152602001828054610c6d90614e01565b8015610cba5780601f10610c8f57610100808354040283529160200191610cba565b820191906000526020600020905b815481529060010190602001808311610c9d57829003601f168201915b50505050508152602001600382018054610cd390614e01565b80601f0160208091040260200160405190810160405280929190818152602001828054610cff90614e01565b8015610d4c5780601f10610d2157610100808354040283529160200191610d4c565b820191906000526020600020905b815481529060010190602001808311610d2f57829003601f168201915b50505050508152505081526020019060010190610aea565b505050509050919050565b6060806000600660008573ffffffffffffffffffffffffffffffffffffffff1673ffffffffffffffffffffffffffffffffffffffff168152602001908152602001600020604051806060016040529081600082018054610dce90614e01565b80601f0160208091040260200160405190810160405280929190818152602001828054610dfa90614e01565b8015610e475780601f10610e1c57610100808354040283529160200191610e47565b820191906000526020600020905b815481529060010190602001808311610e2a57829003601f168201915b505050505081526020016001820160009054906101000a900473ffffffffffffffffffffffffffffffffffffffff1673ffffffffffffffffffffffffffffffffffffffff1673ffffffffffffffffffffffffffffffffffffffff168152602001600282018054610eb690614e01565b80601f0160208091040260200160405190810160405280929190818152602001828054610ee290614e01565b8015610f2f5780601f10610f0457610100808354040283529160200191610f2f565b820191906000526020600020905b815481529060010190602001808311610f1257829003601f168201915b5050505050815250509050806000015181604001519250925050915091565b60006040518060c001604052808681526020018581526020013373ffffffffffffffffffffffffffffffffffffffff16815260200142815260200184815260200183815250905060006040518060a001604052806040518060400160405280600c81526020017f416464206e65772043617365000000000000000000000000000000000000000081525081526020018781526020013373ffffffffffffffffffffffffffffffffffffffff1681526020014281526020016040518060400160405280600781526020017f53756363657373000000000000000000000000000000000000000000000000008152508152509050600a866040516110509190614e6e565b9081526020016040518091039020819080600181540180825580915050600190039060005260206000209060050201600090919091909150600082015181600001908161109d9190615031565b5060208201518160010190816110b39190615031565b5060408201518160020160006101000a81548173ffffffffffffffffffffffffffffffffffffffff021916908373ffffffffffffffffffffffffffffffffffffffff16021790555060608201518160030155608082015181600401908161111a9190615031565b5050506003829080600181540180825580915050600190039060005260206000209060060201600090919091909150600082015181600001908161115e9190615031565b5060208201518160010190816111749190615031565b5060408201518160020160006101000a81548173ffffffffffffffffffffffffffffffffffffffff021916908373ffffffffffffffffffffffffffffffffffffffff160217905550606082015181600301556080820151816004015560a08201518160050190805190602001906111ec929190613ada565b50505060005b8351811015611337576007600085838151811061121257611211615103565b5b602002602001015173ffffffffffffffffffffffffffffffffffffffff1673ffffffffffffffffffffffffffffffffffffffff16815260200190815260200160002083908060018154018082558091505060019003906000526020600020906006020160009091909190915060008201518160000190816112939190615031565b5060208201518160010190816112a99190615031565b5060408201518160020160006101000a81548173ffffffffffffffffffffffffffffffffffffffff021916908373ffffffffffffffffffffffffffffffffffffffff160217905550606082015181600301556080820151816004015560a0820151816005019080519060200190611321929190613ada565b505050808061132f90615161565b9150506111f2565b507fe37eb4297206158cda1099bf25830d4e6a5479f0a2ebcc4cd4c355673950da118686868660405161136d9493929190615218565b60405180910390a16113eb6040518060400160405280600c81526020017f416464204e65772043617365000000000000000000000000000000000000000081525087336040518060400160405280600781526020017f5375636365737300000000000000000000000000000000000000000000000000815250613994565b505050505050565b6001818154811061140357600080fd5b906000526020600020906003020160009150905080600001805461142690614e01565b80601f016020809104026020016040519081016040528092919081815260200182805461145290614e01565b801561149f5780601f106114745761010080835404028352916020019161149f565b820191906000526020600020905b81548152906001019060200180831161148257829003601f168201915b5050505050908060010160009054906101000a900473ffffffffffffffffffffffffffffffffffffffff16908060020180546114da90614e01565b80601f016020809104026020016040519081016040528092919081815260200182805461150690614e01565b80156115535780601f1061152857610100808354040283529160200191611553565b820191906000526020600020905b81548152906001019060200180831161153657829003601f168201915b5050505050905083565b6060600760008373ffffffffffffffffffffffffffffffffffffffff1673ffffffffffffffffffffffffffffffffffffffff168152602001908152602001600020805480602002602001604051908101604052809291908181526020016000905b8282101561180c57838290600052602060002090600602016040518060c00160405290816000820180546115f190614e01565b80601f016020809104026020016040519081016040528092919081815260200182805461161d90614e01565b801561166a5780601f1061163f5761010080835404028352916020019161166a565b820191906000526020600020905b81548152906001019060200180831161164d57829003601f168201915b5050505050815260200160018201805461168390614e01565b80601f01602080910402602001604051908101604052809291908181526020018280546116af90614e01565b80156116fc5780601f106116d1576101008083540402835291602001916116fc565b820191906000526020600020905b8154815290600101906020018083116116df57829003601f168201915b505050505081526020016002820160009054906101000a900473ffffffffffffffffffffffffffffffffffffffff1673ffffffffffffffffffffffffffffffffffffffff1673ffffffffffffffffffffffffffffffffffffffff1681526020016003820154815260200160048201548152602001600582018054806020026020016040519081016040528092919081815260200182805480156117f457602002820191906000526020600020905b8160009054906101000a900473ffffffffffffffffffffffffffffffffffffffff1673ffffffffffffffffffffffffffffffffffffffff16815260200190600101908083116117aa575b505050505081525050815260200190600101906115be565b505050509050919050565b6000604051806080016040528086815260200184815260200185815260200183815250905060006040518060a001604052806040518060400160405280601081526020017f416464202043617365205265706f72740000000000000000000000000000000081525081526020018581526020013373ffffffffffffffffffffffffffffffffffffffff1681526020014281526020016040518060400160405280600781526020017f53756363657373000000000000000000000000000000000000000000000000008152508152509050600a846040516118f79190614e6e565b908152602001604051809103902081908060018154018082558091505060019003906000526020600020906005020160009091909190915060008201518160000190816119449190615031565b50602082015181600101908161195a9190615031565b5060408201518160020160006101000a81548173ffffffffffffffffffffffffffffffffffffffff021916908373ffffffffffffffffffffffffffffffffffffffff1602179055506060820151816003015560808201518160040190816119c19190615031565b50505060058290806001815401808255809150506001900390600052602060002090600402016000909190919091506000820151816000019081611a059190615031565b506020820151816001019081611a1b9190615031565b506040820151816002019081611a319190615031565b506060820151816003019081611a479190615031565b505050600984604051611a5a9190614e6e565b90815260200160405180910390208290806001815401808255809150506001900390600052602060002090600402016000909190919091506000820151816000019081611aa79190615031565b506020820151816001019081611abd9190615031565b506040820151816002019081611ad39190615031565b506060820151816003019081611ae99190615031565b5050507f170cb4246255e166cfcaefee20446b2d016233ac6583b9f166c286d712ad85b686858786604051611b21949392919061405f565b60405180910390a1611b9f6040518060400160405280600d81526020017f55706c6f6164205265706f72740000000000000000000000000000000000000081525085336040518060400160405280600781526020017f5375636365737300000000000000000000000000000000000000000000000000815250613994565b505050505050565b60038181548110611bb757600080fd5b9060005260206000209060060201600091509050806000018054611bda90614e01565b80601f0160208091040260200160405190810160405280929190818152602001828054611c0690614e01565b8015611c535780601f10611c2857610100808354040283529160200191611c53565b820191906000526020600020905b815481529060010190602001808311611c3657829003601f168201915b505050505090806001018054611c6890614e01565b80601f0160208091040260200160405190810160405280929190818152602001828054611c9490614e01565b8015611ce15780601f10611cb657610100808354040283529160200191611ce1565b820191906000526020600020905b815481529060010190602001808311611cc457829003601f168201915b5050505050908060020160009054906101000a900473ffffffffffffffffffffffffffffffffffffffff16908060030154908060040154905085565b6008828051602081018201805184825260208301602085012081835280955050505050508181548110611d4f57600080fd5b906000526020600020906007020160009150915050806000015490806001018054611d7990614e01565b80601f0160208091040260200160405190810160405280929190818152602001828054611da590614e01565b8015611df25780601f10611dc757610100808354040283529160200191611df2565b820191906000526020600020905b815481529060010190602001808311611dd557829003601f168201915b5050505050908060020154908060030160009054906101000a900473ffffffffffffffffffffffffffffffffffffffff1690806004018054611e3390614e01565b80601f0160208091040260200160405190810160405280929190818152602001828054611e5f90614e01565b8015611eac5780601f10611e8157610100808354040283529160200191611eac565b820191906000526020600020905b815481529060010190602001808311611e8f57829003601f168201915b505050505090806005018054611ec190614e01565b80601f0160208091040260200160405190810160405280929190818152602001828054611eed90614e01565b8015611f3a5780601f10611f0f57610100808354040283529160200191611f3a565b820191906000526020600020905b815481529060010190602001808311611f1d57829003601f168201915b505050505090806006018054611f4f90614e01565b80601f0160208091040260200160405190810160405280929190818152602001828054611f7b90614e01565b8015611fc85780601f10611f9d57610100808354040283529160200191611fc8565b820191906000526020600020905b815481529060010190602001808311611fab57829003601f168201915b5050505050905087565b60028181548110611fe257600080fd5b906000526020600020906007020160009150905080600001549080600101805461200b90614e01565b80601f016020809104026020016040519081016040528092919081815260200182805461203790614e01565b80156120845780601f1061205957610100808354040283529160200191612084565b820191906000526020600020905b81548152906001019060200180831161206757829003601f168201915b5050505050908060020154908060030160009054906101000a900473ffffffffffffffffffffffffffffffffffffffff16908060040180546120c590614e01565b80601f01602080910402602001604051908101604052809291908181526020018280546120f190614e01565b801561213e5780601f106121135761010080835404028352916020019161213e565b820191906000526020600020905b81548152906001019060200180831161212157829003601f168201915b50505050509080600501805461215390614e01565b80601f016020809104026020016040519081016040528092919081815260200182805461217f90614e01565b80156121cc5780601f106121a1576101008083540402835291602001916121cc565b820191906000526020600020905b8154815290600101906020018083116121af57829003601f168201915b5050505050908060060180546121e190614e01565b80601f016020809104026020016040519081016040528092919081815260200182805461220d90614e01565b801561225a5780601f1061222f5761010080835404028352916020019161225a565b820191906000526020600020905b81548152906001019060200180831161223d57829003601f168201915b5050505050905087565b6005818154811061227457600080fd5b906000526020600020906004020160009150905080600001805461229790614e01565b80601f01602080910402602001604051908101604052809291908181526020018280546122c390614e01565b80156123105780601f106122e557610100808354040283529160200191612310565b820191906000526020600020905b8154815290600101906020018083116122f357829003601f168201915b50505050509080600101805461232590614e01565b80601f016020809104026020016040519081016040528092919081815260200182805461235190614e01565b801561239e5780601f106123735761010080835404028352916020019161239e565b820191906000526020600020905b81548152906001019060200180831161238157829003601f168201915b5050505050908060020180546123b390614e01565b80601f01602080910402602001604051908101604052809291908181526020018280546123df90614e01565b801561242c5780601f106124015761010080835404028352916020019161242c565b820191906000526020600020905b81548152906001019060200180831161240f57829003601f168201915b50505050509080600301805461244190614e01565b80601f016020809104026020016040519081016040528092919081815260200182805461246d90614e01565b80156124ba5780601f1061248f576101008083540402835291602001916124ba565b820191906000526020600020905b81548152906001019060200180831161249d57829003601f168201915b5050505050905084565b60006040518060e001604052808781526020018681526020014281526020013373ffffffffffffffffffffffffffffffffffffffff16815260200185815260200184815260200183815250905060006040518060a001604052806040518060400160405280601281526020017f4164642020436173652045766964656e6365000000000000000000000000000081525081526020018781526020013373ffffffffffffffffffffffffffffffffffffffff1681526020014281526020016040518060400160405280600781526020017f53756363657373000000000000000000000000000000000000000000000000008152508152509050600a866040516125cc9190614e6e565b908152602001604051809103902081908060018154018082558091505060019003906000526020600020906005020160009091909190915060008201518160000190816126199190615031565b50602082015181600101908161262f9190615031565b5060408201518160020160006101000a81548173ffffffffffffffffffffffffffffffffffffffff021916908373ffffffffffffffffffffffffffffffffffffffff1602179055506060820151816003015560808201518160040190816126969190615031565b50505060028290806001815401808255809150506001900390600052602060002090600702016000909190919091506000820151816000015560208201518160010190816126e49190615031565b506040820151816002015560608201518160030160006101000a81548173ffffffffffffffffffffffffffffffffffffffff021916908373ffffffffffffffffffffffffffffffffffffffff160217905550608082015181600401908161274b9190615031565b5060a08201518160050190816127619190615031565b5060c08201518160060190816127779190615031565b50505060088660405161278a9190614e6e565b90815260200160405180910390208290806001815401808255809150506001900390600052602060002090600702016000909190919091506000820151816000015560208201518160010190816127e19190615031565b506040820151816002015560608201518160030160006101000a81548173ffffffffffffffffffffffffffffffffffffffff021916908373ffffffffffffffffffffffffffffffffffffffff16021790555060808201518160040190816128489190615031565b5060a082015181600501908161285e9190615031565b5060c08201518160060190816128749190615031565b5050507f14c5f6ffce9b973dd3287c36892cf87c3eea7a48528d5700e0ff1bc5fb98b1948787878633426040516128b096959493929190615272565b60405180910390a161292e6040518060400160405280600c81526020017f4164642045766964656e6365000000000000000000000000000000000000000081525087336040518060400160405280600781526020017f5375636365737300000000000000000000000000000000000000000000000000815250613994565b50505050505050565b60606008826040516129499190614e6e565b9081526020016040518091039020805480602002602001604051908101604052809291908181526020016000905b82821015612c5b57838290600052602060002090600702016040518060e0016040529081600082015481526020016001820180546129b490614e01565b80601f01602080910402602001604051908101604052809291908181526020018280546129e090614e01565b8015612a2d5780601f10612a0257610100808354040283529160200191612a2d565b820191906000526020600020905b815481529060010190602001808311612a1057829003601f168201915b50505050508152602001600282015481526020016003820160009054906101000a900473ffffffffffffffffffffffffffffffffffffffff1673ffffffffffffffffffffffffffffffffffffffff1673ffffffffffffffffffffffffffffffffffffffff168152602001600482018054612aa690614e01565b80601f0160208091040260200160405190810160405280929190818152602001828054612ad290614e01565b8015612b1f5780601f10612af457610100808354040283529160200191612b1f565b820191906000526020600020905b815481529060010190602001808311612b0257829003601f168201915b50505050508152602001600582018054612b3890614e01565b80601f0160208091040260200160405190810160405280929190818152602001828054612b6490614e01565b8015612bb15780601f10612b8657610100808354040283529160200191612bb1565b820191906000526020600020905b815481529060010190602001808311612b9457829003601f168201915b50505050508152602001600682018054612bca90614e01565b80601f0160208091040260200160405190810160405280929190818152602001828054612bf690614e01565b8015612c435780601f10612c1857610100808354040283529160200191612c43565b820191906000526020600020905b815481529060010190602001808311612c2657829003601f168201915b50505050508152505081526020019060010190612977565b505050509050919050565b60606002805480602002602001604051908101604052809291908181526020016000905b82821015612f6e57838290600052602060002090600702016040518060e001604052908160008201548152602001600182018054612cc790614e01565b80601f0160208091040260200160405190810160405280929190818152602001828054612cf390614e01565b8015612d405780601f10612d1557610100808354040283529160200191612d40565b820191906000526020600020905b815481529060010190602001808311612d2357829003601f168201915b50505050508152602001600282015481526020016003820160009054906101000a900473ffffffffffffffffffffffffffffffffffffffff1673ffffffffffffffffffffffffffffffffffffffff1673ffffffffffffffffffffffffffffffffffffffff168152602001600482018054612db990614e01565b80601f0160208091040260200160405190810160405280929190818152602001828054612de590614e01565b8015612e325780601f10612e0757610100808354040283529160200191612e32565b820191906000526020600020905b815481529060010190602001808311612e1557829003601f168201915b50505050508152602001600582018054612e4b90614e01565b80601f0160208091040260200160405190810160405280929190818152602001828054612e7790614e01565b8015612ec45780601f10612e9957610100808354040283529160200191612ec4565b820191906000526020600020905b815481529060010190602001808311612ea757829003601f168201915b50505050508152602001600682018054612edd90614e01565b80601f0160208091040260200160405190810160405280929190818152602001828054612f0990614e01565b8015612f565780601f10612f2b57610100808354040283529160200191612f56565b820191906000526020600020905b815481529060010190602001808311612f3957829003601f168201915b50505050508152505081526020019060010190612c8a565b50505050905090565b600060405180606001604052808581526020018473ffffffffffffffffffffffffffffffffffffffff16815260200183815250905060018190806001815401808255809150506001900390600052602060002090600302016000909190919091506000820151816000019081612fed9190615031565b5060208201518160010160006101000a81548173ffffffffffffffffffffffffffffffffffffffff021916908373ffffffffffffffffffffffffffffffffffffffff160217905550604082015181600201908161304a9190615031565b5050508060066000836020015173ffffffffffffffffffffffffffffffffffffffff1673ffffffffffffffffffffffffffffffffffffffff16815260200190815260200160002060008201518160000190816130a69190615031565b5060208201518160010160006101000a81548173ffffffffffffffffffffffffffffffffffffffff021916908373ffffffffffffffffffffffffffffffffffffffff16021790555060408201518160020190816131039190615031565b5090505050505050565b60008054906101000a900473ffffffffffffffffffffffffffffffffffffffff1681565b6004818154811061314157600080fd5b906000526020600020906005020160009150905080600001805461316490614e01565b80601f016020809104026020016040519081016040528092919081815260200182805461319090614e01565b80156131dd5780601f106131b2576101008083540402835291602001916131dd565b820191906000526020600020905b8154815290600101906020018083116131c057829003601f168201915b5050505050908060010180546131f290614e01565b80601f016020809104026020016040519081016040528092919081815260200182805461321e90614e01565b801561326b5780601f106132405761010080835404028352916020019161326b565b820191906000526020600020905b81548152906001019060200180831161324e57829003601f168201915b5050505050908060020160009054906101000a900473ffffffffffffffffffffffffffffffffffffffff16908060030154908060040180546132ac90614e01565b80601f01602080910402602001604051908101604052809291908181526020018280546132d890614e01565b80156133255780601f106132fa57610100808354040283529160200191613325565b820191906000526020600020905b81548152906001019060200180831161330857829003601f168201915b5050505050905085565b6007602052816000526040600020818154811061334b57600080fd5b90600052602060002090600602016000915091505080600001805461336f90614e01565b80601f016020809104026020016040519081016040528092919081815260200182805461339b90614e01565b80156133e85780601f106133bd576101008083540402835291602001916133e8565b820191906000526020600020905b8154815290600101906020018083116133cb57829003601f168201915b5050505050908060010180546133fd90614e01565b80601f016020809104026020016040519081016040528092919081815260200182805461342990614e01565b80156134765780601f1061344b57610100808354040283529160200191613476565b820191906000526020600020905b81548152906001019060200180831161345957829003601f168201915b5050505050908060020160009054906101000a900473ffffffffffffffffffffffffffffffffffffffff16908060030154908060040154905085565b60008060008060005b6001805490508110156136fa576040516020016134d790615334565b604051602081830303815290604052805190602001206001828154811061350157613500615103565b5b906000526020600020906003020160020160405160200161352291906153cc565b604051602081830303815290604052805190602001200361355057848061354890615161565b9550506136e7565b60405160200161355f9061542f565b604051602081830303815290604052805190602001206001828154811061358957613588615103565b5b90600052602060002090600302016002016040516020016135aa91906153cc565b60405160208183030381529060405280519060200120036135d85783806135d090615161565b9450506136e6565b6040516020016135e790615490565b604051602081830303815290604052805190602001206001828154811061361157613610615103565b5b906000526020600020906003020160020160405160200161363291906153cc565b604051602081830303815290604052805190602001200361366057828061365890615161565b9350506136e5565b60405160200161366f906154f1565b604051602081830303815290604052805190602001206001828154811061369957613698615103565b5b90600052602060002090600302016002016040516020016136ba91906153cc565b60405160208183030381529060405280519060200120036136e45781806136e090615161565b9250505b5b5b5b80806136f290615161565b9150506134bb565b5090919293565b6060600a826040516137139190614e6e565b9081526020016040518091039020805480602002602001604051908101604052809291908181526020016000905b8282101561398957838290600052602060002090600502016040518060a001604052908160008201805461377490614e01565b80601f01602080910402602001604051908101604052809291908181526020018280546137a090614e01565b80156137ed5780601f106137c2576101008083540402835291602001916137ed565b820191906000526020600020905b8154815290600101906020018083116137d057829003601f168201915b5050505050815260200160018201805461380690614e01565b80601f016020809104026020016040519081016040528092919081815260200182805461383290614e01565b801561387f5780601f106138545761010080835404028352916020019161387f565b820191906000526020600020905b81548152906001019060200180831161386257829003601f168201915b505050505081526020016002820160009054906101000a900473ffffffffffffffffffffffffffffffffffffffff1673ffffffffffffffffffffffffffffffffffffffff1673ffffffffffffffffffffffffffffffffffffffff168152602001600382015481526020016004820180546138f890614e01565b80601f016020809104026020016040519081016040528092919081815260200182805461392490614e01565b80156139715780601f1061394657610100808354040283529160200191613971565b820191906000526020600020905b81548152906001019060200180831161395457829003601f168201915b50505050508152505081526020019060010190613741565b505050509050919050565b60006040518060a001604052808681526020018581526020018473ffffffffffffffffffffffffffffffffffffffff16815260200142815260200183815250905060048190806001815401808255809150506001900390600052602060002090600502016000909190919091506000820151816000019081613a169190615031565b506020820151816001019081613a2c9190615031565b5060408201518160020160006101000a81548173ffffffffffffffffffffffffffffffffffffffff021916908373ffffffffffffffffffffffffffffffffffffffff160217905550606082015181600301556080820151816004019081613a939190615031565b5050507f9777ca6a69ece45e669964ff3754987bbc86d13fed4bb38a3b25774a0aa79c1085844285604051613acb9493929190615506565b60405180910390a15050505050565b828054828255906000526020600020908101928215613b53579160200282015b82811115613b525782518260006101000a81548173ffffffffffffffffffffffffffffffffffffffff021916908373ffffffffffffffffffffffffffffffffffffffff16021790555091602001919060010190613afa565b5b509050613b609190613b64565b5090565b5b80821115613b7d576000816000905550600101613b65565b5090565b600081519050919050565b600082825260208201905092915050565b6000819050602082019050919050565b600081519050919050565b600082825260208201905092915050565b60005b83811015613be7578082015181840152602081019050613bcc565b60008484015250505050565b6000601f19601f8301169050919050565b6000613c0f82613bad565b613c198185613bb8565b9350613c29818560208601613bc9565b613c3281613bf3565b840191505092915050565b600073ffffffffffffffffffffffffffffffffffffffff82169050919050565b6000613c6882613c3d565b9050919050565b613c7881613c5d565b82525050565b60006060830160008301518482036000860152613c9b8282613c04565b9150506020830151613cb06020860182613c6f565b5060408301518482036040860152613cc88282613c04565b9150508091505092915050565b6000613ce18383613c7e565b905092915050565b6000602082019050919050565b6000613d0182613b81565b613d0b8185613b8c565b935083602082028501613d1d85613b9d565b8060005b85811015613d595784840389528151613d3a8582613cd5565b9450613d4583613ce9565b925060208a01995050600181019050613d21565b50829750879550505050505092915050565b60006020820190508181036000830152613d858184613cf6565b905092915050565b6000604051905090565b600080fd5b600080fd5b613daa81613c5d565b8114613db557600080fd5b50565b600081359050613dc781613da1565b92915050565b600060208284031215613de357613de2613d97565b5b6000613df184828501613db8565b91505092915050565b600082825260208201905092915050565b6000613e1682613bad565b613e208185613dfa565b9350613e30818560208601613bc9565b613e3981613bf3565b840191505092915050565b613e4d81613c5d565b82525050565b60006060820190508181036000830152613e6d8186613e0b565b9050613e7c6020830185613e44565b8181036040830152613e8e8184613e0b565b9050949350505050565b600080fd5b600080fd5b7f4e487b7100000000000000000000000000000000000000000000000000000000600052604160045260246000fd5b613eda82613bf3565b810181811067ffffffffffffffff82111715613ef957613ef8613ea2565b5b80604052505050565b6000613f0c613d8d565b9050613f188282613ed1565b919050565b600067ffffffffffffffff821115613f3857613f37613ea2565b5b613f4182613bf3565b9050602081019050919050565b82818337600083830152505050565b6000613f70613f6b84613f1d565b613f02565b905082815260208101848484011115613f8c57613f8b613e9d565b5b613f97848285613f4e565b509392505050565b600082601f830112613fb457613fb3613e98565b5b8135613fc4848260208601613f5d565b91505092915050565b6000819050919050565b613fe081613fcd565b8114613feb57600080fd5b50565b600081359050613ffd81613fd7565b92915050565b6000806040838503121561401a57614019613d97565b5b600083013567ffffffffffffffff81111561403857614037613d9c565b5b61404485828601613f9f565b925050602061405585828601613fee565b9150509250929050565b600060808201905081810360008301526140798187613e0b565b9050818103602083015261408d8186613e0b565b905081810360408301526140a18185613e0b565b905081810360608301526140b58184613e0b565b905095945050505050565b6000602082840312156140d6576140d5613d97565b5b600082013567ffffffffffffffff8111156140f4576140f3613d9c565b5b61410084828501613f9f565b91505092915050565b600081519050919050565b600082825260208201905092915050565b6000819050602082019050919050565b600060808301600083015184820360008601526141528282613c04565b9150506020830151848203602086015261416c8282613c04565b915050604083015184820360408601526141868282613c04565b915050606083015184820360608601526141a08282613c04565b9150508091505092915050565b60006141b98383614135565b905092915050565b6000602082019050919050565b60006141d982614109565b6141e38185614114565b9350836020820285016141f585614125565b8060005b85811015614231578484038952815161421285826141ad565b945061421d836141c1565b925060208a019950506001810190506141f9565b50829750879550505050505092915050565b6000602082019050818103600083015261425d81846141ce565b905092915050565b6000604082019050818103600083015261427f8185613e0b565b905081810360208301526142938184613e0b565b90509392505050565b600067ffffffffffffffff8211156142b7576142b6613ea2565b5b602082029050602081019050919050565b600080fd5b60006142e06142db8461429c565b613f02565b90508083825260208201905060208402830185811115614303576143026142c8565b5b835b8181101561432c57806143188882613db8565b845260208401935050602081019050614305565b5050509392505050565b600082601f83011261434b5761434a613e98565b5b813561435b8482602086016142cd565b91505092915050565b6000806000806080858703121561437e5761437d613d97565b5b600085013567ffffffffffffffff81111561439c5761439b613d9c565b5b6143a887828801613f9f565b945050602085013567ffffffffffffffff8111156143c9576143c8613d9c565b5b6143d587828801613f9f565b93505060406143e687828801613fee565b925050606085013567ffffffffffffffff81111561440757614406613d9c565b5b61441387828801614336565b91505092959194509250565b60006020828403121561443557614434613d97565b5b600061444384828501613fee565b91505092915050565b600081519050919050565b600082825260208201905092915050565b6000819050602082019050919050565b61448181613fcd565b82525050565b600081519050919050565b600082825260208201905092915050565b6000819050602082019050919050565b60006144bf8383613c6f565b60208301905092915050565b6000602082019050919050565b60006144e382614487565b6144ed8185614492565b93506144f8836144a3565b8060005b8381101561452957815161451088826144b3565b975061451b836144cb565b9250506001810190506144fc565b5085935050505092915050565b600060c08301600083015184820360008601526145538282613c04565b9150506020830151848203602086015261456d8282613c04565b91505060408301516145826040860182613c6f565b5060608301516145956060860182614478565b5060808301516145a86080860182614478565b5060a083015184820360a08601526145c082826144d8565b9150508091505092915050565b60006145d98383614536565b905092915050565b6000602082019050919050565b60006145f98261444c565b6146038185614457565b93508360208202850161461585614468565b8060005b85811015614651578484038952815161463285826145cd565b945061463d836145e1565b925060208a01995050600181019050614619565b50829750879550505050505092915050565b6000602082019050818103600083015261467d81846145ee565b905092915050565b6000806000806080858703121561469f5761469e613d97565b5b600085013567ffffffffffffffff8111156146bd576146bc613d9c565b5b6146c987828801613f9f565b945050602085013567ffffffffffffffff8111156146ea576146e9613d9c565b5b6146f687828801613f9f565b935050604085013567ffffffffffffffff81111561471757614716613d9c565b5b61472387828801613f9f565b925050606085013567ffffffffffffffff81111561474457614743613d9c565b5b61475087828801613f9f565b91505092959194509250565b61476581613fcd565b82525050565b600060a08201905081810360008301526147858188613e0b565b905081810360208301526147998187613e0b565b90506147a86040830186613e44565b6147b5606083018561475c565b6147c2608083018461475c565b9695505050505050565b600060e0820190506147e1600083018a61475c565b81810360208301526147f38189613e0b565b9050614802604083018861475c565b61480f6060830187613e44565b81810360808301526148218186613e0b565b905081810360a08301526148358185613e0b565b905081810360c08301526148498184613e0b565b905098975050505050505050565b600080600080600060a0868803121561487357614872613d97565b5b600061488188828901613fee565b955050602086013567ffffffffffffffff8111156148a2576148a1613d9c565b5b6148ae88828901613f9f565b945050604086013567ffffffffffffffff8111156148cf576148ce613d9c565b5b6148db88828901613f9f565b935050606086013567ffffffffffffffff8111156148fc576148fb613d9c565b5b61490888828901613f9f565b925050608086013567ffffffffffffffff81111561492957614928613d9c565b5b61493588828901613f9f565b9150509295509295909350565b600081519050919050565b600082825260208201905092915050565b6000819050602082019050919050565b600060e0830160008301516149866000860182614478565b506020830151848203602086015261499e8282613c04565b91505060408301516149b36040860182614478565b5060608301516149c66060860182613c6f565b50608083015184820360808601526149de8282613c04565b91505060a083015184820360a08601526149f88282613c04565b91505060c083015184820360c0860152614a128282613c04565b9150508091505092915050565b6000614a2b838361496e565b905092915050565b6000602082019050919050565b6000614a4b82614942565b614a55818561494d565b935083602082028501614a678561495e565b8060005b85811015614aa35784840389528151614a848582614a1f565b9450614a8f83614a33565b925060208a01995050600181019050614a6b565b50829750879550505050505092915050565b60006020820190508181036000830152614acf8184614a40565b905092915050565b600080600060608486031215614af057614aef613d97565b5b600084013567ffffffffffffffff811115614b0e57614b0d613d9c565b5b614b1a86828701613f9f565b9350506020614b2b86828701613db8565b925050604084013567ffffffffffffffff811115614b4c57614b4b613d9c565b5b614b5886828701613f9f565b9150509250925092565b6000602082019050614b776000830184613e44565b92915050565b600060a0820190508181036000830152614b978188613e0b565b90508181036020830152614bab8187613e0b565b9050614bba6040830186613e44565b614bc7606083018561475c565b8181036080830152614bd98184613e0b565b90509695505050505050565b60008060408385031215614bfc57614bfb613d97565b5b6000614c0a85828601613db8565b9250506020614c1b85828601613fee565b9150509250929050565b6000608082019050614c3a600083018761475c565b614c47602083018661475c565b614c54604083018561475c565b614c61606083018461475c565b95945050505050565b600081519050919050565b600082825260208201905092915050565b6000819050602082019050919050565b600060a0830160008301518482036000860152614cb38282613c04565b91505060208301518482036020860152614ccd8282613c04565b9150506040830151614ce26040860182613c6f565b506060830151614cf56060860182614478565b5060808301518482036080860152614d0d8282613c04565b9150508091505092915050565b6000614d268383614c96565b905092915050565b6000602082019050919050565b6000614d4682614c6a565b614d508185614c75565b935083602082028501614d6285614c86565b8060005b85811015614d9e5784840389528151614d7f8582614d1a565b9450614d8a83614d2e565b925060208a01995050600181019050614d66565b50829750879550505050505092915050565b60006020820190508181036000830152614dca8184614d3b565b905092915050565b7f4e487b7100000000000000000000000000000000000000000000000000000000600052602260045260246000fd5b60006002820490506001821680614e1957607f821691505b602082108103614e2c57614e2b614dd2565b5b50919050565b600081905092915050565b6000614e4882613bad565b614e528185614e32565b9350614e62818560208601613bc9565b80840191505092915050565b6000614e7a8284614e3d565b915081905092915050565b60008190508160005260206000209050919050565b60006020601f8301049050919050565b600082821b905092915050565b600060088302614ee77fffffffffffffffffffffffffffffffffffffffffffffffffffffffffffffffff82614eaa565b614ef18683614eaa565b95508019841693508086168417925050509392505050565b6000819050919050565b6000614f2e614f29614f2484613fcd565b614f09565b613fcd565b9050919050565b6000819050919050565b614f4883614f13565b614f5c614f5482614f35565b848454614eb7565b825550505050565b600090565b614f71614f64565b614f7c818484614f3f565b505050565b5b81811015614fa057614f95600082614f69565b600181019050614f82565b5050565b601f821115614fe557614fb681614e85565b614fbf84614e9a565b81016020851015614fce578190505b614fe2614fda85614e9a565b830182614f81565b50505b505050565b600082821c905092915050565b600061500860001984600802614fea565b1980831691505092915050565b60006150218383614ff7565b9150826002028217905092915050565b61503a82613bad565b67ffffffffffffffff81111561505357615052613ea2565b5b61505d8254614e01565b615068828285614fa4565b600060209050601f83116001811461509b5760008415615089578287015190505b6150938582615015565b8655506150fb565b601f1984166150a986614e85565b60005b828110156150d1578489015182556001820191506020850194506020810190506150ac565b868310156150ee57848901516150ea601f891682614ff7565b8355505b6001600288020188555050505b505050505050565b7f4e487b7100000000000000000000000000000000000000000000000000000000600052603260045260246000fd5b7f4e487b7100000000000000000000000000000000000000000000000000000000600052601160045260246000fd5b600061516c82613fcd565b91507fffffffffffffffffffffffffffffffffffffffffffffffffffffffffffffffff820361519e5761519d615132565b5b600182019050919050565b600082825260208201905092915050565b60006151c582614487565b6151cf81856151a9565b93506151da836144a3565b8060005b8381101561520b5781516151f288826144b3565b97506151fd836144cb565b9250506001810190506151de565b5085935050505092915050565b600060808201905081810360008301526152328187613e0b565b905081810360208301526152468186613e0b565b9050615255604083018561475c565b818103606083015261526781846151ba565b905095945050505050565b600060c082019050615287600083018961475c565b81810360208301526152998188613e0b565b905081810360408301526152ad8187613e0b565b905081810360608301526152c18186613e0b565b90506152d06080830185613e44565b6152dd60a083018461475c565b979650505050505050565b7f6a75646765000000000000000000000000000000000000000000000000000000600082015250565b600061531e600583614e32565b9150615329826152e8565b600582019050919050565b600061533f82615311565b9150819050919050565b6000815461535681614e01565b6153608186614e32565b9450600182166000811461537b5760018114615390576153c3565b60ff19831686528115158202860193506153c3565b61539985614e85565b60005b838110156153bb5781548189015260018201915060208101905061539c565b838801955050505b50505092915050565b60006153d88284615349565b915081905092915050565b7f666f72656e736963000000000000000000000000000000000000000000000000600082015250565b6000615419600883614e32565b9150615424826153e3565b600882019050919050565b600061543a8261540c565b9150819050919050565b7f706f6c6963650000000000000000000000000000000000000000000000000000600082015250565b600061547a600683614e32565b915061548582615444565b600682019050919050565b600061549b8261546d565b9150819050919050565b7f70726f73656375746f7200000000000000000000000000000000000000000000600082015250565b60006154db600a83614e32565b91506154e6826154a5565b600a82019050919050565b60006154fc826154ce565b9150819050919050565b600060808201905081810360008301526155208187613e0b565b905061552f6020830186613e44565b61553c604083018561475c565b818103606083015261554e8184613e0b565b90509594505050505056fea264697066735822122093d3b540557d9577d603831c051f96da610f3a04f0ca8e66c9e4656b12f2f50464736f6c63430008130033",
  "linkReferences": {},
  "deployedLinkReferences": {}
}