{
  "_format": "hh-sol-artifact-1",
  "contractName": "Blems",
  "sourceName": "contracts/Blems.sol",
  "abi": [
    {
      "inputs": [],
      "stateMutability": "nonpayable",
      "type": "constructor"
    },
    {
      "anonymous": false,
      "inputs": [
        {
          "indexed": false,
          "internalType": "string",
          "name": "caseNo",
          "type": "string"
        },
        {
          "indexed": false,
          "internalType": "string",
          "name": "casedescription",
          "type": "string"
        },
        {
          "indexed": false,
          "internalType": "uint256",
          "name": "no_participants",
          "type": "uint256"
        },
        {
          "indexed": false,
          "internalType": "address[]",
          "name": "participants",
          "type": "address[]"
        }
      ],
      "name": "CaseAdded",
      "type": "event"
    },
    {
      "anonymous": false,
      "inputs": [
        {
          "indexed": false,
          "internalType": "uint256",
          "name": "itemNo",
          "type": "uint256"
        },
        {
          "indexed": false,
          "internalType": "string",
          "name": "caseNo",
          "type": "string"
        },
        {
          "indexed": false,
          "internalType": "string",
          "name": "description",
          "type": "string"
        },
        {
          "indexed": false,
          "internalType": "string",
          "name": "evidence_cid",
          "type": "string"
        },
        {
          "indexed": false,
          "internalType": "address",
          "name": "uploader",
          "type": "address"
        },
        {
          "indexed": false,
          "internalType": "uint256",
          "name": "timestamp",
          "type": "uint256"
        }
      ],
      "name": "EvidenceAdded",
      "type": "event"
    },
    {
      "anonymous": false,
      "inputs": [
        {
          "indexed": false,
          "internalType": "string",
          "name": "ipfs_hash",
          "type": "string"
        },
        {
          "indexed": false,
          "internalType": "address",
          "name": "downloader",
          "type": "address"
        },
        {
          "indexed": false,
          "internalType": "uint256",
          "name": "timestamp",
          "type": "uint256"
        }
      ],
      "name": "EvidenceDownloaded",
      "type": "event"
    },
    {
      "anonymous": false,
      "inputs": [
        {
          "indexed": false,
          "internalType": "string",
          "name": "transactionType",
          "type": "string"
        },
        {
          "indexed": false,
          "internalType": "address",
          "name": "userAddress",
          "type": "address"
        },
        {
          "indexed": false,
          "internalType": "uint256",
          "name": "timestamp",
          "type": "uint256"
        },
        {
          "indexed": false,
          "internalType": "string",
          "name": "status",
          "type": "string"
        }
      ],
      "name": "NewTransaction",
      "type": "event"
    },
    {
      "anonymous": false,
      "inputs": [
        {
          "indexed": false,
          "internalType": "string",
          "name": "title",
          "type": "string"
        },
        {
          "indexed": false,
          "internalType": "string",
          "name": "caseNumber",
          "type": "string"
        },
        {
          "indexed": false,
          "internalType": "string",
          "name": "description",
          "type": "string"
        },
        {
          "indexed": false,
          "internalType": "string",
          "name": "file_hash",
          "type": "string"
        }
      ],
      "name": "ReportAdded",
      "type": "event"
    },
    {
      "inputs": [
        {
          "internalType": "uint256",
          "name": "_itemNo",
          "type": "uint256"
        },
        {
          "internalType": "string",
          "name": "_caseNumber",
          "type": "string"
        },
        {
          "internalType": "string",
          "name": "_description",
          "type": "string"
        },
        {
          "internalType": "string",
          "name": "_location_Collection",
          "type": "string"
        },
        {
          "internalType": "string",
          "name": "_evidenceCID",
          "type": "string"
        }
      ],
      "name": "addEvidence",
      "outputs": [],
      "stateMutability": "nonpayable",
      "type": "function"
    },
    {
      "inputs": [
        {
          "internalType": "string",
          "name": "_caseNo",
          "type": "string"
        },
        {
          "internalType": "string",
          "name": "_caseDescription",
          "type": "string"
        },
        {
          "internalType": "uint256",
          "name": "_noParticipants",
          "type": "uint256"
        },
        {
          "internalType": "address[]",
          "name": "_participants",
          "type": "address[]"
        }
      ],
      "name": "addNewCase",
      "outputs": [],
      "stateMutability": "nonpayable",
      "type": "function"
    },
    {
      "inputs": [
        {
          "internalType": "string",
          "name": "_name",
          "type": "string"
        },
        {
          "internalType": "address",
          "name": "_useraddress",
          "type": "address"
        },
        {
          "internalType": "string",
          "name": "_position",
          "type": "string"
        }
      ],
      "name": "addUser",
      "outputs": [],
      "stateMutability": "nonpayable",
      "type": "function"
    },
    {
      "inputs": [
        {
          "internalType": "uint256",
          "name": "",
          "type": "uint256"
        }
      ],
      "name": "caseArray",
      "outputs": [
        {
          "internalType": "string",
          "name": "case_no",
          "type": "string"
        },
        {
          "internalType": "string",
          "name": "case_description",
          "type": "string"
        },
        {
          "internalType": "address",
          "name": "addedBy",
          "type": "address"
        },
        {
          "internalType": "uint256",
          "name": "dateAdded",
          "type": "uint256"
        },
        {
          "internalType": "uint256",
          "name": "no_participants",
          "type": "uint256"
        }
      ],
      "stateMutability": "view",
      "type": "function"
    },
    {
      "inputs": [
        {
          "internalType": "string",
          "name": "",
          "type": "string"
        },
        {
          "internalType": "uint256",
          "name": "",
          "type": "uint256"
        }
      ],
      "name": "caseMapping",
      "outputs": [
        {
          "internalType": "uint256",
          "name": "item_Number",
          "type": "uint256"
        },
        {
          "internalType": "string",
          "name": "case_number",
          "type": "string"
        },
        {
          "internalType": "uint256",
          "name": "dateCollected",
          "type": "uint256"
        },
        {
          "internalType": "address",
          "name": "collector",
          "type": "address"
        },
        {
          "internalType": "string",
          "name": "evidence_description",
          "type": "string"
        },
        {
          "internalType": "string",
          "name": "collection_location",
          "type": "string"
        },
        {
          "internalType": "string",
          "name": "evidenceCID",
          "type": "string"
        }
      ],
      "stateMutability": "view",
      "type": "function"
    },
    {
      "inputs": [
        {
          "internalType": "string",
          "name": "",
          "type": "string"
        },
        {
          "internalType": "uint256",
          "name": "",
          "type": "uint256"
        }
      ],
      "name": "caseReportMapping",
      "outputs": [
        {
          "internalType": "string",
          "name": "title",
          "type": "string"
        },
        {
          "internalType": "string",
          "name": "caseNumber",
          "type": "string"
        },
        {
          "internalType": "string",
          "name": "description",
          "type": "string"
        },
        {
          "internalType": "string",
          "name": "file_hash",
          "type": "string"
        }
      ],
      "stateMutability": "view",
      "type": "function"
    },
    {
      "inputs": [],
      "name": "countUsersByPosition",
      "outputs": [
        {
          "internalType": "uint256",
          "name": "judgeCount",
          "type": "uint256"
        },
        {
          "internalType": "uint256",
          "name": "forensicCount",
          "type": "uint256"
        },
        {
          "internalType": "uint256",
          "name": "lawEnforcementCount",
          "type": "uint256"
        },
        {
          "internalType": "uint256",
          "name": "prosecutorCount",
          "type": "uint256"
        }
      ],
      "stateMutability": "view",
      "type": "function"
    },
    {
      "inputs": [
        {
          "internalType": "uint256",
          "name": "",
          "type": "uint256"
        }
      ],
      "name": "evidenceArray",
      "outputs": [
        {
          "internalType": "uint256",
          "name": "item_Number",
          "type": "uint256"
        },
        {
          "internalType": "string",
          "name": "case_number",
          "type": "string"
        },
        {
          "internalType": "uint256",
          "name": "dateCollected",
          "type": "uint256"
        },
        {
          "internalType": "address",
          "name": "collector",
          "type": "address"
        },
        {
          "internalType": "string",
          "name": "evidence_description",
          "type": "string"
        },
        {
          "internalType": "string",
          "name": "collection_location",
          "type": "string"
        },
        {
          "internalType": "string",
          "name": "evidenceCID",
          "type": "string"
        }
      ],
      "stateMutability": "view",
      "type": "function"
    },
    {
      "inputs": [],
      "name": "getAllEvidence",
      "outputs": [
        {
          "components": [
            {
              "internalType": "uint256",
              "name": "item_Number",
              "type": "uint256"
            },
            {
              "internalType": "string",
              "name": "case_number",
              "type": "string"
            },
            {
              "internalType": "uint256",
              "name": "dateCollected",
              "type": "uint256"
            },
            {
              "internalType": "address",
              "name": "collector",
              "type": "address"
            },
            {
              "internalType": "string",
              "name": "evidence_description",
              "type": "string"
            },
            {
              "internalType": "string",
              "name": "collection_location",
              "type": "string"
            },
            {
              "internalType": "string",
              "name": "evidenceCID",
              "type": "string"
            }
          ],
          "internalType": "struct Blems.Evidence[]",
          "name": "",
          "type": "tuple[]"
        }
      ],
      "stateMutability": "view",
      "type": "function"
    },
    {
      "inputs": [
        {
          "internalType": "string",
          "name": "_caseNumber",
          "type": "string"
        }
      ],
      "name": "getCaseTxns",
      "outputs": [
        {
          "components": [
            {
              "internalType": "string",
              "name": "transactionType",
              "type": "string"
            },
            {
              "internalType": "string",
              "name": "caseNumber",
              "type": "string"
            },
            {
              "internalType": "address",
              "name": "userAddress",
              "type": "address"
            },
            {
              "internalType": "uint256",
              "name": "timestamp",
              "type": "uint256"
            },
            {
              "internalType": "string",
              "name": "status",
              "type": "string"
            }
          ],
          "internalType": "struct Blems.Transaction[]",
          "name": "",
          "type": "tuple[]"
        }
      ],
      "stateMutability": "view",
      "type": "function"
    },
    {
      "inputs": [
        {
          "internalType": "string",
          "name": "_casenumber",
          "type": "string"
        }
      ],
      "name": "getEvidence",
      "outputs": [
        {
          "components": [
            {
              "internalType": "uint256",
              "name": "item_Number",
              "type": "uint256"
            },
            {
              "internalType": "string",
              "name": "case_number",
              "type": "string"
            },
            {
              "internalType": "uint256",
              "name": "dateCollected",
              "type": "uint256"
            },
            {
              "internalType": "address",
              "name": "collector",
              "type": "address"
            },
            {
              "internalType": "string",
              "name": "evidence_description",
              "type": "string"
            },
            {
              "internalType": "string",
              "name": "collection_location",
              "type": "string"
            },
            {
              "internalType": "string",
              "name": "evidenceCID",
              "type": "string"
            }
          ],
          "internalType": "struct Blems.Evidence[]",
          "name": "",
          "type": "tuple[]"
        }
      ],
      "stateMutability": "view",
      "type": "function"
    },
    {
      "inputs": [
        {
          "internalType": "string",
          "name": "_caseNumber",
          "type": "string"
        }
      ],
      "name": "getReport",
      "outputs": [
        {
          "components": [
            {
              "internalType": "string",
              "name": "title",
              "type": "string"
            },
            {
              "internalType": "string",
              "name": "caseNumber",
              "type": "string"
            },
            {
              "internalType": "string",
              "name": "description",
              "type": "string"
            },
            {
              "internalType": "string",
              "name": "file_hash",
              "type": "string"
            }
          ],
          "internalType": "struct Blems.Report[]",
          "name": "",
          "type": "tuple[]"
        }
      ],
      "stateMutability": "view",
      "type": "function"
    },
    {
      "inputs": [],
      "name": "getUsers",
      "outputs": [
        {
          "components": [
            {
              "internalType": "string",
              "name": "name",
              "type": "string"
            },
            {
              "internalType": "address",
              "name": "userAddress",
              "type": "address"
            },
            {
              "internalType": "string",
              "name": "position",
              "type": "string"
            }
          ],
          "internalType": "struct Blems.User[]",
          "name": "",
          "type": "tuple[]"
        }
      ],
      "stateMutability": "view",
      "type": "function"
    },
    {
      "inputs": [
        {
          "internalType": "address",
          "name": "_useraddress",
          "type": "address"
        }
      ],
      "name": "getmyCase",
      "outputs": [
        {
          "components": [
            {
              "internalType": "string",
              "name": "case_no",
              "type": "string"
            },
            {
              "internalType": "string",
              "name": "case_description",
              "type": "string"
            },
            {
              "internalType": "address",
              "name": "addedBy",
              "type": "address"
            },
            {
              "internalType": "uint256",
              "name": "dateAdded",
              "type": "uint256"
            },
            {
              "internalType": "uint256",
              "name": "no_participants",
              "type": "uint256"
            },
            {
              "internalType": "address[]",
              "name": "participants",
              "type": "address[]"
            }
          ],
          "internalType": "struct Blems.Case[]",
          "name": "",
          "type": "tuple[]"
        }
      ],
      "stateMutability": "view",
      "type": "function"
    },
    {
      "inputs": [],
      "name": "i_owner",
      "outputs": [
        {
          "internalType": "address",
          "name": "",
          "type": "address"
        }
      ],
      "stateMutability": "view",
      "type": "function"
    },
    {
      "inputs": [
        {
          "internalType": "address",
          "name": "add",
          "type": "address"
        }
      ],
      "name": "login",
      "outputs": [
        {
          "internalType": "string",
          "name": "",
          "type": "string"
        },
        {
          "internalType": "string",
          "name": "",
          "type": "string"
        }
      ],
      "stateMutability": "view",
      "type": "function"
    },
    {
      "inputs": [
        {
          "internalType": "uint256",
          "name": "",
          "type": "uint256"
        }
      ],
      "name": "reportsArray",
      "outputs": [
        {
          "internalType": "string",
          "name": "title",
          "type": "string"
        },
        {
          "internalType": "string",
          "name": "caseNumber",
          "type": "string"
        },
        {
          "internalType": "string",
          "name": "description",
          "type": "string"
        },
        {
          "internalType": "string",
          "name": "file_hash",
          "type": "string"
        }
      ],
      "stateMutability": "view",
      "type": "function"
    },
    {
      "inputs": [
        {
          "internalType": "uint256",
          "name": "",
          "type": "uint256"
        }
      ],
      "name": "transactionsArray",
      "outputs": [
        {
          "internalType": "string",
          "name": "transactionType",
          "type": "string"
        },
        {
          "internalType": "string",
          "name": "caseNumber",
          "type": "string"
        },
        {
          "internalType": "address",
          "name": "userAddress",
          "type": "address"
        },
        {
          "internalType": "uint256",
          "name": "timestamp",
          "type": "uint256"
        },
        {
          "internalType": "string",
          "name": "status",
          "type": "string"
        }
      ],
      "stateMutability": "view",
      "type": "function"
    },
    {
      "inputs": [
        {
          "internalType": "string",
          "name": "_title",
          "type": "string"
        },
        {
          "internalType": "string",
          "name": "_description",
          "type": "string"
        },
        {
          "internalType": "string",
          "name": "_caseNumber",
          "type": "string"
        },
        {
          "internalType": "string",
          "name": "_fileHash",
          "type": "string"
        }
      ],
      "name": "uploadReport",
      "outputs": [],
      "stateMutability": "nonpayable",
      "type": "function"
    },
    {
      "inputs": [
        {
          "internalType": "uint256",
          "name": "",
          "type": "uint256"
        }
      ],
      "name": "userArray",
      "outputs": [
        {
          "internalType": "string",
          "name": "name",
          "type": "string"
        },
        {
          "internalType": "address",
          "name": "userAddress",
          "type": "address"
        },
        {
          "internalType": "string",
          "name": "position",
          "type": "string"
        }
      ],
      "stateMutability": "view",
      "type": "function"
    },
    {
      "inputs": [
        {
          "internalType": "address",
          "name": "",
          "type": "address"
        }
      ],
      "name": "userMapping",
      "outputs": [
        {
          "internalType": "string",
          "name": "name",
          "type": "string"
        },
        {
          "internalType": "address",
          "name": "userAddress",
          "type": "address"
        },
        {
          "internalType": "string",
          "name": "position",
          "type": "string"
        }
      ],
      "stateMutability": "view",
      "type": "function"
    },
    {
      "inputs": [
        {
          "internalType": "address",
          "name": "",
          "type": "address"
        },
        {
          "internalType": "uint256",
          "name": "",
          "type": "uint256"
        }
      ],
      "name": "user_CaseMapping",
      "outputs": [
        {
          "internalType": "string",
          "name": "case_no",
          "type": "string"
        },
        {
          "internalType": "string",
          "name": "case_description",
          "type": "string"
        },
        {
          "internalType": "address",
          "name": "addedBy",
          "type": "address"
        },
        {
          "internalType": "uint256",
          "name": "dateAdded",
          "type": "uint256"
        },
        {
          "internalType": "uint256",
          "name": "no_participants",
          "type": "uint256"
        }
      ],
      "stateMutability": "view",
      "type": "function"
    }
  ],
  "bytecode": "0x60806040523480156200001157600080fd5b50336000806101000a81548173ffffffffffffffffffffffffffffffffffffffff021916908373ffffffffffffffffffffffffffffffffffffffff1602179055506040518060400160405280600581526020017f61646d696e000000000000000000000000000000000000000000000000000000815250600660008060009054906101000a900473ffffffffffffffffffffffffffffffffffffffff1673ffffffffffffffffffffffffffffffffffffffff1673ffffffffffffffffffffffffffffffffffffffff1681526020019081526020016000206002019081620000f991906200037a565b5062000461565b600081519050919050565b7f4e487b7100000000000000000000000000000000000000000000000000000000600052604160045260246000fd5b7f4e487b7100000000000000000000000000000000000000000000000000000000600052602260045260246000fd5b600060028204905060018216806200018257607f821691505b6020821081036200019857620001976200013a565b5b50919050565b60008190508160005260206000209050919050565b60006020601f8301049050919050565b600082821b905092915050565b600060088302620002027fffffffffffffffffffffffffffffffffffffffffffffffffffffffffffffffff82620001c3565b6200020e8683620001c3565b95508019841693508086168417925050509392505050565b6000819050919050565b6000819050919050565b60006200025b620002556200024f8462000226565b62000230565b62000226565b9050919050565b6000819050919050565b62000277836200023a565b6200028f620002868262000262565b848454620001d0565b825550505050565b600090565b620002a662000297565b620002b38184846200026c565b505050565b5b81811015620002db57620002cf6000826200029c565b600181019050620002b9565b5050565b601f8211156200032a57620002f4816200019e565b620002ff84620001b3565b810160208510156200030f578190505b620003276200031e85620001b3565b830182620002b8565b50505b505050565b600082821c905092915050565b60006200034f600019846008026200032f565b1980831691505092915050565b60006200036a83836200033c565b9150826002028217905092915050565b620003858262000100565b67ffffffffffffffff811115620003a157620003a06200010b565b5b620003ad825462000169565b620003ba828285620002df565b600060209050601f831160018114620003f25760008415620003dd578287015190505b620003e985826200035c565b86555062000459565b601f19841662000402866200019e565b60005b828110156200042c5784890151825560018201915060208501945060208101905062000405565b868310156200044c578489015162000448601f8916826200033c565b8355505b6001600288020188555050505b505050505050565b615caa80620004716000396000f3fe608060405234801561001057600080fd5b50600436106101415760003560e01c806388aae880116100b8578063d4b317311161007c578063d4b3173114610401578063dba6335f1461041d578063e210ecee1461043b578063ebdcbbf51461046f578063f51097cd146104a3578063f8adfe45146104c457610141565b806388aae8801461032e5780639767d4b314610364578063aef8242814610397578063b16c6ee7146103b3578063c22cf017146103e357610141565b8063383684591161010a578063383684591461022a57806341209af1146102465780634b21f46f146102785780635bce1722146102a857806365e6b6bf146102c45780636615df5f146102f857610141565b8062ce8e3e14610146578063118b953514610164578063122585701461019657806312e63d71146101c957806335a6861a146101f9575b600080fd5b61014e6104f4565b60405161015b919061418c565b60405180910390f35b61017e600480360381019061017991906141ee565b6106cd565b60405161018d93929190614274565b60405180910390f35b6101b060048036038101906101ab9190614424565b610827565b6040516101c09493929190614480565b60405180910390f35b6101e360048036038101906101de91906144e1565b610aaa565b6040516101f09190614664565b60405180910390f35b610213600480360381019061020e91906141ee565b610d6f565b604051610221929190614686565b60405180910390f35b610244600480360381019061023f9190614785565b610f4e565b005b610260600480360381019061025b9190614840565b611524565b60405161026f93929190614274565b60405180910390f35b610292600480360381019061028d91906141ee565b61168e565b60405161029f9190614a84565b60405180910390f35b6102c260048036038101906102bd9190614aa6565b611948565b005b6102de60048036038101906102d99190614840565b611e09565b6040516102ef959493929190614b8c565b60405180910390f35b610312600480360381019061030d9190614424565b611f7f565b6040516103259796959493929190614bed565b60405180910390f35b61034860048036038101906103439190614840565b612234565b60405161035b9796959493929190614bed565b60405180910390f35b61037e60048036038101906103799190614840565b6124c6565b60405161038e9493929190614480565b60405180910390f35b6103b160048036038101906103ac9190614c78565b612726565b005b6103cd60048036038101906103c891906144e1565b612cca565b6040516103da9190614ed6565b60405180910390f35b6103eb612ff9565b6040516103f89190614ed6565b60405180910390f35b61041b60048036038101906104169190614ef8565b61330a565b005b61042561352e565b6040516104329190614f83565b60405180910390f35b61045560048036038101906104509190614840565b613552565b604051610466959493929190614f9e565b60405180910390f35b61048960048036038101906104849190615006565b613750565b60405161049a959493929190614b8c565b60405180910390f35b6104ab6138d3565b6040516104bb9493929190615046565b60405180910390f35b6104de60048036038101906104d991906144e1565b613b22565b6040516104eb91906151d1565b60405180910390f35b60606001805480602002602001604051908101604052809291908181526020016000905b828210156106c4578382906000526020600020906003020160405180606001604052908160008201805461054b90615222565b80601f016020809104026020016040519081016040528092919081815260200182805461057790615222565b80156105c45780601f10610599576101008083540402835291602001916105c4565b820191906000526020600020905b8154815290600101906020018083116105a757829003601f168201915b505050505081526020016001820160009054906101000a900473ffffffffffffffffffffffffffffffffffffffff1673ffffffffffffffffffffffffffffffffffffffff1673ffffffffffffffffffffffffffffffffffffffff16815260200160028201805461063390615222565b80601f016020809104026020016040519081016040528092919081815260200182805461065f90615222565b80156106ac5780601f10610681576101008083540402835291602001916106ac565b820191906000526020600020905b81548152906001019060200180831161068f57829003601f168201915b50505050508152505081526020019060010190610518565b50505050905090565b60066020528060005260406000206000915090508060000180546106f090615222565b80601f016020809104026020016040519081016040528092919081815260200182805461071c90615222565b80156107695780601f1061073e57610100808354040283529160200191610769565b820191906000526020600020905b81548152906001019060200180831161074c57829003601f168201915b5050505050908060010160009054906101000a900473ffffffffffffffffffffffffffffffffffffffff16908060020180546107a490615222565b80601f01602080910402602001604051908101604052809291908181526020018280546107d090615222565b801561081d5780601f106107f25761010080835404028352916020019161081d565b820191906000526020600020905b81548152906001019060200180831161080057829003601f168201915b5050505050905083565b600982805160208101820180518482526020830160208501208183528095505050505050818154811061085957600080fd5b90600052602060002090600402016000915091505080600001805461087d90615222565b80601f01602080910402602001604051908101604052809291908181526020018280546108a990615222565b80156108f65780601f106108cb576101008083540402835291602001916108f6565b820191906000526020600020905b8154815290600101906020018083116108d957829003601f168201915b50505050509080600101805461090b90615222565b80601f016020809104026020016040519081016040528092919081815260200182805461093790615222565b80156109845780601f1061095957610100808354040283529160200191610984565b820191906000526020600020905b81548152906001019060200180831161096757829003601f168201915b50505050509080600201805461099990615222565b80601f01602080910402602001604051908101604052809291908181526020018280546109c590615222565b8015610a125780601f106109e757610100808354040283529160200191610a12565b820191906000526020600020905b8154815290600101906020018083116109f557829003601f168201915b505050505090806003018054610a2790615222565b80601f0160208091040260200160405190810160405280929190818152602001828054610a5390615222565b8015610aa05780601f10610a7557610100808354040283529160200191610aa0565b820191906000526020600020905b815481529060010190602001808311610a8357829003601f168201915b5050505050905084565b6060600982604051610abc919061528f565b9081526020016040518091039020805480602002602001604051908101604052809291908181526020016000905b82821015610d645783829060005260206000209060040201604051806080016040529081600082018054610b1d90615222565b80601f0160208091040260200160405190810160405280929190818152602001828054610b4990615222565b8015610b965780601f10610b6b57610100808354040283529160200191610b96565b820191906000526020600020905b815481529060010190602001808311610b7957829003601f168201915b50505050508152602001600182018054610baf90615222565b80601f0160208091040260200160405190810160405280929190818152602001828054610bdb90615222565b8015610c285780601f10610bfd57610100808354040283529160200191610c28565b820191906000526020600020905b815481529060010190602001808311610c0b57829003601f168201915b50505050508152602001600282018054610c4190615222565b80601f0160208091040260200160405190810160405280929190818152602001828054610c6d90615222565b8015610cba5780601f10610c8f57610100808354040283529160200191610cba565b820191906000526020600020905b815481529060010190602001808311610c9d57829003601f168201915b50505050508152602001600382018054610cd390615222565b80601f0160208091040260200160405190810160405280929190818152602001828054610cff90615222565b8015610d4c5780601f10610d2157610100808354040283529160200191610d4c565b820191906000526020600020905b815481529060010190602001808311610d2f57829003601f168201915b50505050508152505081526020019060010190610aea565b505050509050919050565b6060806000600660008573ffffffffffffffffffffffffffffffffffffffff1673ffffffffffffffffffffffffffffffffffffffff168152602001908152602001600020604051806060016040529081600082018054610dce90615222565b80601f0160208091040260200160405190810160405280929190818152602001828054610dfa90615222565b8015610e475780601f10610e1c57610100808354040283529160200191610e47565b820191906000526020600020905b815481529060010190602001808311610e2a57829003601f168201915b505050505081526020016001820160009054906101000a900473ffffffffffffffffffffffffffffffffffffffff1673ffffffffffffffffffffffffffffffffffffffff1673ffffffffffffffffffffffffffffffffffffffff168152602001600282018054610eb690615222565b80601f0160208091040260200160405190810160405280929190818152602001828054610ee290615222565b8015610f2f5780601f10610f0457610100808354040283529160200191610f2f565b820191906000526020600020905b815481529060010190602001808311610f1257829003601f168201915b5050505050815250509050806000015181604001519250925050915091565b604051602001610f5d906152f2565b60405160208183030381529060405280519060200120600660003373ffffffffffffffffffffffffffffffffffffffff1673ffffffffffffffffffffffffffffffffffffffff168152602001908152602001600020600201604051602001610fc5919061539f565b604051602081830303815290604052805190602001201461101b576040517f08c379a000000000000000000000000000000000000000000000000000000000815260040161101290615428565b60405180910390fd5b6000600a8560405161102d919061528f565b9081526020016040518091039020805490501461107f576040517f08c379a000000000000000000000000000000000000000000000000000000000815260040161107690615494565b60405180910390fd5b60006040518060c001604052808681526020018581526020013373ffffffffffffffffffffffffffffffffffffffff16815260200142815260200184815260200183815250905060006040518060a001604052806040518060400160405280600c81526020017f416464206e65772043617365000000000000000000000000000000000000000081525081526020018781526020013373ffffffffffffffffffffffffffffffffffffffff1681526020014281526020016040518060400160405280600781526020017f53756363657373000000000000000000000000000000000000000000000000008152508152509050600a86604051611181919061528f565b908152602001604051809103902081908060018154018082558091505060019003906000526020600020906005020160009091909190915060008201518160000190816111ce919061564b565b5060208201518160010190816111e4919061564b565b5060408201518160020160006101000a81548173ffffffffffffffffffffffffffffffffffffffff021916908373ffffffffffffffffffffffffffffffffffffffff16021790555060608201518160030155608082015181600401908161124b919061564b565b5050506003829080600181540180825580915050600190039060005260206000209060060201600090919091909150600082015181600001908161128f919061564b565b5060208201518160010190816112a5919061564b565b5060408201518160020160006101000a81548173ffffffffffffffffffffffffffffffffffffffff021916908373ffffffffffffffffffffffffffffffffffffffff160217905550606082015181600301556080820151816004015560a082015181600501908051906020019061131d929190613efb565b50505060005b835181101561146857600760008583815181106113435761134261571d565b5b602002602001015173ffffffffffffffffffffffffffffffffffffffff1673ffffffffffffffffffffffffffffffffffffffff16815260200190815260200160002083908060018154018082558091505060019003906000526020600020906006020160009091909190915060008201518160000190816113c4919061564b565b5060208201518160010190816113da919061564b565b5060408201518160020160006101000a81548173ffffffffffffffffffffffffffffffffffffffff021916908373ffffffffffffffffffffffffffffffffffffffff160217905550606082015181600301556080820151816004015560a0820151816005019080519060200190611452929190613efb565b50505080806114609061577b565b915050611323565b507fe37eb4297206158cda1099bf25830d4e6a5479f0a2ebcc4cd4c355673950da118686868660405161149e9493929190615832565b60405180910390a161151c6040518060400160405280600c81526020017f416464204e65772043617365000000000000000000000000000000000000000081525087336040518060400160405280600781526020017f5375636365737300000000000000000000000000000000000000000000000000815250613db5565b505050505050565b6001818154811061153457600080fd5b906000526020600020906003020160009150905080600001805461155790615222565b80601f016020809104026020016040519081016040528092919081815260200182805461158390615222565b80156115d05780601f106115a5576101008083540402835291602001916115d0565b820191906000526020600020905b8154815290600101906020018083116115b357829003601f168201915b5050505050908060010160009054906101000a900473ffffffffffffffffffffffffffffffffffffffff169080600201805461160b90615222565b80601f016020809104026020016040519081016040528092919081815260200182805461163790615222565b80156116845780601f1061165957610100808354040283529160200191611684565b820191906000526020600020905b81548152906001019060200180831161166757829003601f168201915b5050505050905083565b6060600760008373ffffffffffffffffffffffffffffffffffffffff1673ffffffffffffffffffffffffffffffffffffffff168152602001908152602001600020805480602002602001604051908101604052809291908181526020016000905b8282101561193d57838290600052602060002090600602016040518060c001604052908160008201805461172290615222565b80601f016020809104026020016040519081016040528092919081815260200182805461174e90615222565b801561179b5780601f106117705761010080835404028352916020019161179b565b820191906000526020600020905b81548152906001019060200180831161177e57829003601f168201915b505050505081526020016001820180546117b490615222565b80601f01602080910402602001604051908101604052809291908181526020018280546117e090615222565b801561182d5780601f106118025761010080835404028352916020019161182d565b820191906000526020600020905b81548152906001019060200180831161181057829003601f168201915b505050505081526020016002820160009054906101000a900473ffffffffffffffffffffffffffffffffffffffff1673ffffffffffffffffffffffffffffffffffffffff1673ffffffffffffffffffffffffffffffffffffffff16815260200160038201548152602001600482015481526020016005820180548060200260200160405190810160405280929190818152602001828054801561192557602002820191906000526020600020905b8160009054906101000a900473ffffffffffffffffffffffffffffffffffffffff1673ffffffffffffffffffffffffffffffffffffffff16815260200190600101908083116118db575b505050505081525050815260200190600101906116ef565b505050509050919050565b604051602001611957906158d8565b60405160208183030381529060405280519060200120600660003373ffffffffffffffffffffffffffffffffffffffff1673ffffffffffffffffffffffffffffffffffffffff1681526020019081526020016000206002016040516020016119bf919061539f565b6040516020818303038152906040528051906020012014611a15576040517f08c379a0000000000000000000000000000000000000000000000000000000008152600401611a0c9061595f565b60405180910390fd5b6000600a83604051611a27919061528f565b90815260200160405180910390208054905011611a79576040517f08c379a0000000000000000000000000000000000000000000000000000000008152600401611a70906159cb565b60405180910390fd5b6000604051806080016040528086815260200184815260200185815260200183815250905060006040518060a001604052806040518060400160405280601081526020017f416464202043617365205265706f72740000000000000000000000000000000081525081526020018581526020013373ffffffffffffffffffffffffffffffffffffffff1681526020014281526020016040518060400160405280600781526020017f53756363657373000000000000000000000000000000000000000000000000008152508152509050600a84604051611b59919061528f565b90815260200160405180910390208190806001815401808255809150506001900390600052602060002090600502016000909190919091506000820151816000019081611ba6919061564b565b506020820151816001019081611bbc919061564b565b5060408201518160020160006101000a81548173ffffffffffffffffffffffffffffffffffffffff021916908373ffffffffffffffffffffffffffffffffffffffff160217905550606082015181600301556080820151816004019081611c23919061564b565b50505060058290806001815401808255809150506001900390600052602060002090600402016000909190919091506000820151816000019081611c67919061564b565b506020820151816001019081611c7d919061564b565b506040820151816002019081611c93919061564b565b506060820151816003019081611ca9919061564b565b505050600984604051611cbc919061528f565b90815260200160405180910390208290806001815401808255809150506001900390600052602060002090600402016000909190919091506000820151816000019081611d09919061564b565b506020820151816001019081611d1f919061564b565b506040820151816002019081611d35919061564b565b506060820151816003019081611d4b919061564b565b5050507f170cb4246255e166cfcaefee20446b2d016233ac6583b9f166c286d712ad85b686858786604051611d839493929190614480565b60405180910390a1611e016040518060400160405280600d81526020017f55706c6f6164205265706f72740000000000000000000000000000000000000081525085336040518060400160405280600781526020017f5375636365737300000000000000000000000000000000000000000000000000815250613db5565b505050505050565b60038181548110611e1957600080fd5b9060005260206000209060060201600091509050806000018054611e3c90615222565b80601f0160208091040260200160405190810160405280929190818152602001828054611e6890615222565b8015611eb55780601f10611e8a57610100808354040283529160200191611eb5565b820191906000526020600020905b815481529060010190602001808311611e9857829003601f168201915b505050505090806001018054611eca90615222565b80601f0160208091040260200160405190810160405280929190818152602001828054611ef690615222565b8015611f435780601f10611f1857610100808354040283529160200191611f43565b820191906000526020600020905b815481529060010190602001808311611f2657829003601f168201915b5050505050908060020160009054906101000a900473ffffffffffffffffffffffffffffffffffffffff16908060030154908060040154905085565b6008828051602081018201805184825260208301602085012081835280955050505050508181548110611fb157600080fd5b906000526020600020906007020160009150915050806000015490806001018054611fdb90615222565b80601f016020809104026020016040519081016040528092919081815260200182805461200790615222565b80156120545780601f1061202957610100808354040283529160200191612054565b820191906000526020600020905b81548152906001019060200180831161203757829003601f168201915b5050505050908060020154908060030160009054906101000a900473ffffffffffffffffffffffffffffffffffffffff169080600401805461209590615222565b80601f01602080910402602001604051908101604052809291908181526020018280546120c190615222565b801561210e5780601f106120e35761010080835404028352916020019161210e565b820191906000526020600020905b8154815290600101906020018083116120f157829003601f168201915b50505050509080600501805461212390615222565b80601f016020809104026020016040519081016040528092919081815260200182805461214f90615222565b801561219c5780601f106121715761010080835404028352916020019161219c565b820191906000526020600020905b81548152906001019060200180831161217f57829003601f168201915b5050505050908060060180546121b190615222565b80601f01602080910402602001604051908101604052809291908181526020018280546121dd90615222565b801561222a5780601f106121ff5761010080835404028352916020019161222a565b820191906000526020600020905b81548152906001019060200180831161220d57829003601f168201915b5050505050905087565b6002818154811061224457600080fd5b906000526020600020906007020160009150905080600001549080600101805461226d90615222565b80601f016020809104026020016040519081016040528092919081815260200182805461229990615222565b80156122e65780601f106122bb576101008083540402835291602001916122e6565b820191906000526020600020905b8154815290600101906020018083116122c957829003601f168201915b5050505050908060020154908060030160009054906101000a900473ffffffffffffffffffffffffffffffffffffffff169080600401805461232790615222565b80601f016020809104026020016040519081016040528092919081815260200182805461235390615222565b80156123a05780601f10612375576101008083540402835291602001916123a0565b820191906000526020600020905b81548152906001019060200180831161238357829003601f168201915b5050505050908060050180546123b590615222565b80601f01602080910402602001604051908101604052809291908181526020018280546123e190615222565b801561242e5780601f106124035761010080835404028352916020019161242e565b820191906000526020600020905b81548152906001019060200180831161241157829003601f168201915b50505050509080600601805461244390615222565b80601f016020809104026020016040519081016040528092919081815260200182805461246f90615222565b80156124bc5780601f10612491576101008083540402835291602001916124bc565b820191906000526020600020905b81548152906001019060200180831161249f57829003601f168201915b5050505050905087565b600581815481106124d657600080fd5b90600052602060002090600402016000915090508060000180546124f990615222565b80601f016020809104026020016040519081016040528092919081815260200182805461252590615222565b80156125725780601f1061254757610100808354040283529160200191612572565b820191906000526020600020905b81548152906001019060200180831161255557829003601f168201915b50505050509080600101805461258790615222565b80601f01602080910402602001604051908101604052809291908181526020018280546125b390615222565b80156126005780601f106125d557610100808354040283529160200191612600565b820191906000526020600020905b8154815290600101906020018083116125e357829003601f168201915b50505050509080600201805461261590615222565b80601f016020809104026020016040519081016040528092919081815260200182805461264190615222565b801561268e5780601f106126635761010080835404028352916020019161268e565b820191906000526020600020905b81548152906001019060200180831161267157829003601f168201915b5050505050908060030180546126a390615222565b80601f01602080910402602001604051908101604052809291908181526020018280546126cf90615222565b801561271c5780601f106126f15761010080835404028352916020019161271c565b820191906000526020600020905b8154815290600101906020018083116126ff57829003601f168201915b5050505050905084565b60405160200161273590615a37565b60405160208183030381529060405280519060200120600660003373ffffffffffffffffffffffffffffffffffffffff1673ffffffffffffffffffffffffffffffffffffffff16815260200190815260200160002060020160405160200161279d919061539f565b60405160208183030381529060405280519060200120146127f3576040517f08c379a00000000000000000000000000000000000000000000000000000000081526004016127ea90615abe565b60405180910390fd5b6000600a85604051612805919061528f565b90815260200160405180910390208054905011612857576040517f08c379a000000000000000000000000000000000000000000000000000000000815260040161284e906159cb565b60405180910390fd5b60006040518060e001604052808781526020018681526020014281526020013373ffffffffffffffffffffffffffffffffffffffff16815260200185815260200184815260200183815250905060006040518060a001604052806040518060400160405280601281526020017f4164642020436173652045766964656e6365000000000000000000000000000081525081526020018781526020013373ffffffffffffffffffffffffffffffffffffffff1681526020014281526020016040518060400160405280600781526020017f53756363657373000000000000000000000000000000000000000000000000008152508152509050600a8660405161295f919061528f565b908152602001604051809103902081908060018154018082558091505060019003906000526020600020906005020160009091909190915060008201518160000190816129ac919061564b565b5060208201518160010190816129c2919061564b565b5060408201518160020160006101000a81548173ffffffffffffffffffffffffffffffffffffffff021916908373ffffffffffffffffffffffffffffffffffffffff160217905550606082015181600301556080820151816004019081612a29919061564b565b5050506002829080600181540180825580915050600190039060005260206000209060070201600090919091909150600082015181600001556020820151816001019081612a77919061564b565b506040820151816002015560608201518160030160006101000a81548173ffffffffffffffffffffffffffffffffffffffff021916908373ffffffffffffffffffffffffffffffffffffffff1602179055506080820151816004019081612ade919061564b565b5060a0820151816005019081612af4919061564b565b5060c0820151816006019081612b0a919061564b565b505050600886604051612b1d919061528f565b9081526020016040518091039020829080600181540180825580915050600190039060005260206000209060070201600090919091909150600082015181600001556020820151816001019081612b74919061564b565b506040820151816002015560608201518160030160006101000a81548173ffffffffffffffffffffffffffffffffffffffff021916908373ffffffffffffffffffffffffffffffffffffffff1602179055506080820151816004019081612bdb919061564b565b5060a0820151816005019081612bf1919061564b565b5060c0820151816006019081612c07919061564b565b5050507f14c5f6ffce9b973dd3287c36892cf87c3eea7a48528d5700e0ff1bc5fb98b194878787863342604051612c4396959493929190615ade565b60405180910390a1612cc16040518060400160405280600c81526020017f4164642045766964656e6365000000000000000000000000000000000000000081525087336040518060400160405280600781526020017f5375636365737300000000000000000000000000000000000000000000000000815250613db5565b50505050505050565b6060600882604051612cdc919061528f565b9081526020016040518091039020805480602002602001604051908101604052809291908181526020016000905b82821015612fee57838290600052602060002090600702016040518060e001604052908160008201548152602001600182018054612d4790615222565b80601f0160208091040260200160405190810160405280929190818152602001828054612d7390615222565b8015612dc05780601f10612d9557610100808354040283529160200191612dc0565b820191906000526020600020905b815481529060010190602001808311612da357829003601f168201915b50505050508152602001600282015481526020016003820160009054906101000a900473ffffffffffffffffffffffffffffffffffffffff1673ffffffffffffffffffffffffffffffffffffffff1673ffffffffffffffffffffffffffffffffffffffff168152602001600482018054612e3990615222565b80601f0160208091040260200160405190810160405280929190818152602001828054612e6590615222565b8015612eb25780601f10612e8757610100808354040283529160200191612eb2565b820191906000526020600020905b815481529060010190602001808311612e9557829003601f168201915b50505050508152602001600582018054612ecb90615222565b80601f0160208091040260200160405190810160405280929190818152602001828054612ef790615222565b8015612f445780601f10612f1957610100808354040283529160200191612f44565b820191906000526020600020905b815481529060010190602001808311612f2757829003601f168201915b50505050508152602001600682018054612f5d90615222565b80601f0160208091040260200160405190810160405280929190818152602001828054612f8990615222565b8015612fd65780601f10612fab57610100808354040283529160200191612fd6565b820191906000526020600020905b815481529060010190602001808311612fb957829003601f168201915b50505050508152505081526020019060010190612d0a565b505050509050919050565b60606002805480602002602001604051908101604052809291908181526020016000905b8282101561330157838290600052602060002090600702016040518060e00160405290816000820154815260200160018201805461305a90615222565b80601f016020809104026020016040519081016040528092919081815260200182805461308690615222565b80156130d35780601f106130a8576101008083540402835291602001916130d3565b820191906000526020600020905b8154815290600101906020018083116130b657829003601f168201915b50505050508152602001600282015481526020016003820160009054906101000a900473ffffffffffffffffffffffffffffffffffffffff1673ffffffffffffffffffffffffffffffffffffffff1673ffffffffffffffffffffffffffffffffffffffff16815260200160048201805461314c90615222565b80601f016020809104026020016040519081016040528092919081815260200182805461317890615222565b80156131c55780601f1061319a576101008083540402835291602001916131c5565b820191906000526020600020905b8154815290600101906020018083116131a857829003601f168201915b505050505081526020016005820180546131de90615222565b80601f016020809104026020016040519081016040528092919081815260200182805461320a90615222565b80156132575780601f1061322c57610100808354040283529160200191613257565b820191906000526020600020905b81548152906001019060200180831161323a57829003601f168201915b5050505050815260200160068201805461327090615222565b80601f016020809104026020016040519081016040528092919081815260200182805461329c90615222565b80156132e95780601f106132be576101008083540402835291602001916132e9565b820191906000526020600020905b8154815290600101906020018083116132cc57829003601f168201915b5050505050815250508152602001906001019061301d565b50505050905090565b60008054906101000a900473ffffffffffffffffffffffffffffffffffffffff1673ffffffffffffffffffffffffffffffffffffffff163373ffffffffffffffffffffffffffffffffffffffff1614613398576040517f08c379a000000000000000000000000000000000000000000000000000000000815260040161338f90615ba0565b60405180910390fd5b600060405180606001604052808581526020018473ffffffffffffffffffffffffffffffffffffffff1681526020018381525090506001819080600181540180825580915050600190039060005260206000209060030201600090919091909150600082015181600001908161340e919061564b565b5060208201518160010160006101000a81548173ffffffffffffffffffffffffffffffffffffffff021916908373ffffffffffffffffffffffffffffffffffffffff160217905550604082015181600201908161346b919061564b565b5050508060066000836020015173ffffffffffffffffffffffffffffffffffffffff1673ffffffffffffffffffffffffffffffffffffffff16815260200190815260200160002060008201518160000190816134c7919061564b565b5060208201518160010160006101000a81548173ffffffffffffffffffffffffffffffffffffffff021916908373ffffffffffffffffffffffffffffffffffffffff1602179055506040820151816002019081613524919061564b565b5090505050505050565b60008054906101000a900473ffffffffffffffffffffffffffffffffffffffff1681565b6004818154811061356257600080fd5b906000526020600020906005020160009150905080600001805461358590615222565b80601f01602080910402602001604051908101604052809291908181526020018280546135b190615222565b80156135fe5780601f106135d3576101008083540402835291602001916135fe565b820191906000526020600020905b8154815290600101906020018083116135e157829003601f168201915b50505050509080600101805461361390615222565b80601f016020809104026020016040519081016040528092919081815260200182805461363f90615222565b801561368c5780601f106136615761010080835404028352916020019161368c565b820191906000526020600020905b81548152906001019060200180831161366f57829003601f168201915b5050505050908060020160009054906101000a900473ffffffffffffffffffffffffffffffffffffffff16908060030154908060040180546136cd90615222565b80601f01602080910402602001604051908101604052809291908181526020018280546136f990615222565b80156137465780601f1061371b57610100808354040283529160200191613746565b820191906000526020600020905b81548152906001019060200180831161372957829003601f168201915b5050505050905085565b6007602052816000526040600020818154811061376c57600080fd5b90600052602060002090600602016000915091505080600001805461379090615222565b80601f01602080910402602001604051908101604052809291908181526020018280546137bc90615222565b80156138095780601f106137de57610100808354040283529160200191613809565b820191906000526020600020905b8154815290600101906020018083116137ec57829003601f168201915b50505050509080600101805461381e90615222565b80601f016020809104026020016040519081016040528092919081815260200182805461384a90615222565b80156138975780601f1061386c57610100808354040283529160200191613897565b820191906000526020600020905b81548152906001019060200180831161387a57829003601f168201915b5050505050908060020160009054906101000a900473ffffffffffffffffffffffffffffffffffffffff16908060030154908060040154905085565b60008060008060005b600180549050811015613b1b576040516020016138f890615c0c565b60405160208183030381529060405280519060200120600182815481106139225761392161571d565b5b9060005260206000209060030201600201604051602001613943919061539f565b60405160208183030381529060405280519060200120036139715784806139699061577b565b955050613b08565b604051602001613980906158d8565b60405160208183030381529060405280519060200120600182815481106139aa576139a961571d565b5b90600052602060002090600302016002016040516020016139cb919061539f565b60405160208183030381529060405280519060200120036139f95783806139f19061577b565b945050613b07565b604051602001613a0890615a37565b6040516020818303038152906040528051906020012060018281548110613a3257613a3161571d565b5b9060005260206000209060030201600201604051602001613a53919061539f565b6040516020818303038152906040528051906020012003613a81578280613a799061577b565b935050613b06565b604051602001613a90906152f2565b6040516020818303038152906040528051906020012060018281548110613aba57613ab961571d565b5b9060005260206000209060030201600201604051602001613adb919061539f565b6040516020818303038152906040528051906020012003613b05578180613b019061577b565b9250505b5b5b5b8080613b139061577b565b9150506138dc565b5090919293565b6060600a82604051613b34919061528f565b9081526020016040518091039020805480602002602001604051908101604052809291908181526020016000905b82821015613daa57838290600052602060002090600502016040518060a0016040529081600082018054613b9590615222565b80601f0160208091040260200160405190810160405280929190818152602001828054613bc190615222565b8015613c0e5780601f10613be357610100808354040283529160200191613c0e565b820191906000526020600020905b815481529060010190602001808311613bf157829003601f168201915b50505050508152602001600182018054613c2790615222565b80601f0160208091040260200160405190810160405280929190818152602001828054613c5390615222565b8015613ca05780601f10613c7557610100808354040283529160200191613ca0565b820191906000526020600020905b815481529060010190602001808311613c8357829003601f168201915b505050505081526020016002820160009054906101000a900473ffffffffffffffffffffffffffffffffffffffff1673ffffffffffffffffffffffffffffffffffffffff1673ffffffffffffffffffffffffffffffffffffffff16815260200160038201548152602001600482018054613d1990615222565b80601f0160208091040260200160405190810160405280929190818152602001828054613d4590615222565b8015613d925780601f10613d6757610100808354040283529160200191613d92565b820191906000526020600020905b815481529060010190602001808311613d7557829003601f168201915b50505050508152505081526020019060010190613b62565b505050509050919050565b60006040518060a001604052808681526020018581526020018473ffffffffffffffffffffffffffffffffffffffff16815260200142815260200183815250905060048190806001815401808255809150506001900390600052602060002090600502016000909190919091506000820151816000019081613e37919061564b565b506020820151816001019081613e4d919061564b565b5060408201518160020160006101000a81548173ffffffffffffffffffffffffffffffffffffffff021916908373ffffffffffffffffffffffffffffffffffffffff160217905550606082015181600301556080820151816004019081613eb4919061564b565b5050507f9777ca6a69ece45e669964ff3754987bbc86d13fed4bb38a3b25774a0aa79c1085844285604051613eec9493929190615c21565b60405180910390a15050505050565b828054828255906000526020600020908101928215613f74579160200282015b82811115613f735782518260006101000a81548173ffffffffffffffffffffffffffffffffffffffff021916908373ffffffffffffffffffffffffffffffffffffffff16021790555091602001919060010190613f1b565b5b509050613f819190613f85565b5090565b5b80821115613f9e576000816000905550600101613f86565b5090565b600081519050919050565b600082825260208201905092915050565b6000819050602082019050919050565b600081519050919050565b600082825260208201905092915050565b60005b83811015614008578082015181840152602081019050613fed565b60008484015250505050565b6000601f19601f8301169050919050565b600061403082613fce565b61403a8185613fd9565b935061404a818560208601613fea565b61405381614014565b840191505092915050565b600073ffffffffffffffffffffffffffffffffffffffff82169050919050565b60006140898261405e565b9050919050565b6140998161407e565b82525050565b600060608301600083015184820360008601526140bc8282614025565b91505060208301516140d16020860182614090565b50604083015184820360408601526140e98282614025565b9150508091505092915050565b6000614102838361409f565b905092915050565b6000602082019050919050565b600061412282613fa2565b61412c8185613fad565b93508360208202850161413e85613fbe565b8060005b8581101561417a578484038952815161415b85826140f6565b94506141668361410a565b925060208a01995050600181019050614142565b50829750879550505050505092915050565b600060208201905081810360008301526141a68184614117565b905092915050565b6000604051905090565b600080fd5b600080fd5b6141cb8161407e565b81146141d657600080fd5b50565b6000813590506141e8816141c2565b92915050565b600060208284031215614204576142036141b8565b5b6000614212848285016141d9565b91505092915050565b600082825260208201905092915050565b600061423782613fce565b614241818561421b565b9350614251818560208601613fea565b61425a81614014565b840191505092915050565b61426e8161407e565b82525050565b6000606082019050818103600083015261428e818661422c565b905061429d6020830185614265565b81810360408301526142af818461422c565b9050949350505050565b600080fd5b600080fd5b7f4e487b7100000000000000000000000000000000000000000000000000000000600052604160045260246000fd5b6142fb82614014565b810181811067ffffffffffffffff8211171561431a576143196142c3565b5b80604052505050565b600061432d6141ae565b905061433982826142f2565b919050565b600067ffffffffffffffff821115614359576143586142c3565b5b61436282614014565b9050602081019050919050565b82818337600083830152505050565b600061439161438c8461433e565b614323565b9050828152602081018484840111156143ad576143ac6142be565b5b6143b884828561436f565b509392505050565b600082601f8301126143d5576143d46142b9565b5b81356143e584826020860161437e565b91505092915050565b6000819050919050565b614401816143ee565b811461440c57600080fd5b50565b60008135905061441e816143f8565b92915050565b6000806040838503121561443b5761443a6141b8565b5b600083013567ffffffffffffffff811115614459576144586141bd565b5b614465858286016143c0565b92505060206144768582860161440f565b9150509250929050565b6000608082019050818103600083015261449a818761422c565b905081810360208301526144ae818661422c565b905081810360408301526144c2818561422c565b905081810360608301526144d6818461422c565b905095945050505050565b6000602082840312156144f7576144f66141b8565b5b600082013567ffffffffffffffff811115614515576145146141bd565b5b614521848285016143c0565b91505092915050565b600081519050919050565b600082825260208201905092915050565b6000819050602082019050919050565b600060808301600083015184820360008601526145738282614025565b9150506020830151848203602086015261458d8282614025565b915050604083015184820360408601526145a78282614025565b915050606083015184820360608601526145c18282614025565b9150508091505092915050565b60006145da8383614556565b905092915050565b6000602082019050919050565b60006145fa8261452a565b6146048185614535565b93508360208202850161461685614546565b8060005b85811015614652578484038952815161463385826145ce565b945061463e836145e2565b925060208a0199505060018101905061461a565b50829750879550505050505092915050565b6000602082019050818103600083015261467e81846145ef565b905092915050565b600060408201905081810360008301526146a0818561422c565b905081810360208301526146b4818461422c565b90509392505050565b600067ffffffffffffffff8211156146d8576146d76142c3565b5b602082029050602081019050919050565b600080fd5b60006147016146fc846146bd565b614323565b90508083825260208201905060208402830185811115614724576147236146e9565b5b835b8181101561474d578061473988826141d9565b845260208401935050602081019050614726565b5050509392505050565b600082601f83011261476c5761476b6142b9565b5b813561477c8482602086016146ee565b91505092915050565b6000806000806080858703121561479f5761479e6141b8565b5b600085013567ffffffffffffffff8111156147bd576147bc6141bd565b5b6147c9878288016143c0565b945050602085013567ffffffffffffffff8111156147ea576147e96141bd565b5b6147f6878288016143c0565b93505060406148078782880161440f565b925050606085013567ffffffffffffffff811115614828576148276141bd565b5b61483487828801614757565b91505092959194509250565b600060208284031215614856576148556141b8565b5b60006148648482850161440f565b91505092915050565b600081519050919050565b600082825260208201905092915050565b6000819050602082019050919050565b6148a2816143ee565b82525050565b600081519050919050565b600082825260208201905092915050565b6000819050602082019050919050565b60006148e08383614090565b60208301905092915050565b6000602082019050919050565b6000614904826148a8565b61490e81856148b3565b9350614919836148c4565b8060005b8381101561494a57815161493188826148d4565b975061493c836148ec565b92505060018101905061491d565b5085935050505092915050565b600060c08301600083015184820360008601526149748282614025565b9150506020830151848203602086015261498e8282614025565b91505060408301516149a36040860182614090565b5060608301516149b66060860182614899565b5060808301516149c96080860182614899565b5060a083015184820360a08601526149e182826148f9565b9150508091505092915050565b60006149fa8383614957565b905092915050565b6000602082019050919050565b6000614a1a8261486d565b614a248185614878565b935083602082028501614a3685614889565b8060005b85811015614a725784840389528151614a5385826149ee565b9450614a5e83614a02565b925060208a01995050600181019050614a3a565b50829750879550505050505092915050565b60006020820190508181036000830152614a9e8184614a0f565b905092915050565b60008060008060808587031215614ac057614abf6141b8565b5b600085013567ffffffffffffffff811115614ade57614add6141bd565b5b614aea878288016143c0565b945050602085013567ffffffffffffffff811115614b0b57614b0a6141bd565b5b614b17878288016143c0565b935050604085013567ffffffffffffffff811115614b3857614b376141bd565b5b614b44878288016143c0565b925050606085013567ffffffffffffffff811115614b6557614b646141bd565b5b614b71878288016143c0565b91505092959194509250565b614b86816143ee565b82525050565b600060a0820190508181036000830152614ba6818861422c565b90508181036020830152614bba818761422c565b9050614bc96040830186614265565b614bd66060830185614b7d565b614be36080830184614b7d565b9695505050505050565b600060e082019050614c02600083018a614b7d565b8181036020830152614c14818961422c565b9050614c236040830188614b7d565b614c306060830187614265565b8181036080830152614c42818661422c565b905081810360a0830152614c56818561422c565b905081810360c0830152614c6a818461422c565b905098975050505050505050565b600080600080600060a08688031215614c9457614c936141b8565b5b6000614ca28882890161440f565b955050602086013567ffffffffffffffff811115614cc357614cc26141bd565b5b614ccf888289016143c0565b945050604086013567ffffffffffffffff811115614cf057614cef6141bd565b5b614cfc888289016143c0565b935050606086013567ffffffffffffffff811115614d1d57614d1c6141bd565b5b614d29888289016143c0565b925050608086013567ffffffffffffffff811115614d4a57614d496141bd565b5b614d56888289016143c0565b9150509295509295909350565b600081519050919050565b600082825260208201905092915050565b6000819050602082019050919050565b600060e083016000830151614da76000860182614899565b5060208301518482036020860152614dbf8282614025565b9150506040830151614dd46040860182614899565b506060830151614de76060860182614090565b5060808301518482036080860152614dff8282614025565b91505060a083015184820360a0860152614e198282614025565b91505060c083015184820360c0860152614e338282614025565b9150508091505092915050565b6000614e4c8383614d8f565b905092915050565b6000602082019050919050565b6000614e6c82614d63565b614e768185614d6e565b935083602082028501614e8885614d7f565b8060005b85811015614ec45784840389528151614ea58582614e40565b9450614eb083614e54565b925060208a01995050600181019050614e8c565b50829750879550505050505092915050565b60006020820190508181036000830152614ef08184614e61565b905092915050565b600080600060608486031215614f1157614f106141b8565b5b600084013567ffffffffffffffff811115614f2f57614f2e6141bd565b5b614f3b868287016143c0565b9350506020614f4c868287016141d9565b925050604084013567ffffffffffffffff811115614f6d57614f6c6141bd565b5b614f79868287016143c0565b9150509250925092565b6000602082019050614f986000830184614265565b92915050565b600060a0820190508181036000830152614fb8818861422c565b90508181036020830152614fcc818761422c565b9050614fdb6040830186614265565b614fe86060830185614b7d565b8181036080830152614ffa818461422c565b90509695505050505050565b6000806040838503121561501d5761501c6141b8565b5b600061502b858286016141d9565b925050602061503c8582860161440f565b9150509250929050565b600060808201905061505b6000830187614b7d565b6150686020830186614b7d565b6150756040830185614b7d565b6150826060830184614b7d565b95945050505050565b600081519050919050565b600082825260208201905092915050565b6000819050602082019050919050565b600060a08301600083015184820360008601526150d48282614025565b915050602083015184820360208601526150ee8282614025565b91505060408301516151036040860182614090565b5060608301516151166060860182614899565b506080830151848203608086015261512e8282614025565b9150508091505092915050565b600061514783836150b7565b905092915050565b6000602082019050919050565b60006151678261508b565b6151718185615096565b935083602082028501615183856150a7565b8060005b858110156151bf57848403895281516151a0858261513b565b94506151ab8361514f565b925060208a01995050600181019050615187565b50829750879550505050505092915050565b600060208201905081810360008301526151eb818461515c565b905092915050565b7f4e487b7100000000000000000000000000000000000000000000000000000000600052602260045260246000fd5b6000600282049050600182168061523a57607f821691505b60208210810361524d5761524c6151f3565b5b50919050565b600081905092915050565b600061526982613fce565b6152738185615253565b9350615283818560208601613fea565b80840191505092915050565b600061529b828461525e565b915081905092915050565b7f70726f73656375746f7200000000000000000000000000000000000000000000600082015250565b60006152dc600a83615253565b91506152e7826152a6565b600a82019050919050565b60006152fd826152cf565b9150819050919050565b60008190508160005260206000209050919050565b6000815461532981615222565b6153338186615253565b9450600182166000811461534e576001811461536357615396565b60ff1983168652811515820286019350615396565b61536c85615307565b60005b8381101561538e5781548189015260018201915060208101905061536f565b838801955050505b50505092915050565b60006153ab828461531c565b915081905092915050565b7f4f6e6c792075736572732077697468207468652070726f73656375746f72207260008201527f6f6c652063616e2063616c6c20746869732066756e6374696f6e000000000000602082015250565b6000615412603a8361421b565b915061541d826153b6565b604082019050919050565b6000602082019050818103600083015261544181615405565b9050919050565b7f4361736520616c72656164792065786973747300000000000000000000000000600082015250565b600061547e60138361421b565b915061548982615448565b602082019050919050565b600060208201905081810360008301526154ad81615471565b9050919050565b60006020601f8301049050919050565b600082821b905092915050565b6000600883026155017fffffffffffffffffffffffffffffffffffffffffffffffffffffffffffffffff826154c4565b61550b86836154c4565b95508019841693508086168417925050509392505050565b6000819050919050565b600061554861554361553e846143ee565b615523565b6143ee565b9050919050565b6000819050919050565b6155628361552d565b61557661556e8261554f565b8484546154d1565b825550505050565b600090565b61558b61557e565b615596818484615559565b505050565b5b818110156155ba576155af600082615583565b60018101905061559c565b5050565b601f8211156155ff576155d081615307565b6155d9846154b4565b810160208510156155e8578190505b6155fc6155f4856154b4565b83018261559b565b50505b505050565b600082821c905092915050565b600061562260001984600802615604565b1980831691505092915050565b600061563b8383615611565b9150826002028217905092915050565b61565482613fce565b67ffffffffffffffff81111561566d5761566c6142c3565b5b6156778254615222565b6156828282856155be565b600060209050601f8311600181146156b557600084156156a3578287015190505b6156ad858261562f565b865550615715565b601f1984166156c386615307565b60005b828110156156eb578489015182556001820191506020850194506020810190506156c6565b868310156157085784890151615704601f891682615611565b8355505b6001600288020188555050505b505050505050565b7f4e487b7100000000000000000000000000000000000000000000000000000000600052603260045260246000fd5b7f4e487b7100000000000000000000000000000000000000000000000000000000600052601160045260246000fd5b6000615786826143ee565b91507fffffffffffffffffffffffffffffffffffffffffffffffffffffffffffffffff82036157b8576157b761574c565b5b600182019050919050565b600082825260208201905092915050565b60006157df826148a8565b6157e981856157c3565b93506157f4836148c4565b8060005b8381101561582557815161580c88826148d4565b9750615817836148ec565b9250506001810190506157f8565b5085935050505092915050565b6000608082019050818103600083015261584c818761422c565b90508181036020830152615860818661422c565b905061586f6040830185614b7d565b818103606083015261588181846157d4565b905095945050505050565b7f666f72656e736963000000000000000000000000000000000000000000000000600082015250565b60006158c2600883615253565b91506158cd8261588c565b600882019050919050565b60006158e3826158b5565b9150819050919050565b7f4f6e6c7920757365727320776974682074686520666f72656e73696320726f6c60008201527f652063616e2063616c6c20746869732066756e6374696f6e0000000000000000602082015250565b600061594960388361421b565b9150615954826158ed565b604082019050919050565b600060208201905081810360008301526159788161593c565b9050919050565b7f4361736520646f6573206e6f7420657869737400000000000000000000000000600082015250565b60006159b560138361421b565b91506159c08261597f565b602082019050919050565b600060208201905081810360008301526159e4816159a8565b9050919050565b7f706f6c6963650000000000000000000000000000000000000000000000000000600082015250565b6000615a21600683615253565b9150615a2c826159eb565b600682019050919050565b6000615a4282615a14565b9150819050919050565b7f4f6e6c7920757365727320776974682074686520706f6c69636520726f6c652060008201527f63616e2063616c6c20746869732066756e6374696f6e00000000000000000000602082015250565b6000615aa860368361421b565b9150615ab382615a4c565b604082019050919050565b60006020820190508181036000830152615ad781615a9b565b9050919050565b600060c082019050615af36000830189614b7d565b8181036020830152615b05818861422c565b90508181036040830152615b19818761422c565b90508181036060830152615b2d818661422c565b9050615b3c6080830185614265565b615b4960a0830184614b7d565b979650505050505050565b7f424c454d532041646d696e206163636f756e7420697320726571756972656400600082015250565b6000615b8a601f8361421b565b9150615b9582615b54565b602082019050919050565b60006020820190508181036000830152615bb981615b7d565b9050919050565b7f6a75646765000000000000000000000000000000000000000000000000000000600082015250565b6000615bf6600583615253565b9150615c0182615bc0565b600582019050919050565b6000615c1782615be9565b9150819050919050565b60006080820190508181036000830152615c3b818761422c565b9050615c4a6020830186614265565b615c576040830185614b7d565b8181036060830152615c69818461422c565b90509594505050505056fea2646970667358221220b03d7aba010243849c6a3a9ea623262d465049134b23a0cdb8e059adc072c3a364736f6c63430008130033",
  "linkReferences": {},
  "deployedLinkReferences": {}
}