{
  "_format": "hh-sol-artifact-1",
  "contractName": "Blems",
  "sourceName": "contracts/Blems.sol",
  "abi": [
    {
      "inputs": [],
      "stateMutability": "nonpayable",
      "type": "constructor"
    },
    {
      "anonymous": false,
      "inputs": [
        {
          "indexed": false,
          "internalType": "string",
          "name": "caseNo",
          "type": "string"
        },
        {
          "indexed": false,
          "internalType": "string",
          "name": "casedescription",
          "type": "string"
        },
        {
          "indexed": false,
          "internalType": "uint256",
          "name": "no_participants",
          "type": "uint256"
        },
        {
          "indexed": false,
          "internalType": "address[]",
          "name": "participants",
          "type": "address[]"
        }
      ],
      "name": "CaseAdded",
      "type": "event"
    },
    {
      "anonymous": false,
      "inputs": [
        {
          "indexed": false,
          "internalType": "uint256",
          "name": "itemNo",
          "type": "uint256"
        },
        {
          "indexed": false,
          "internalType": "string",
          "name": "caseNo",
          "type": "string"
        },
        {
          "indexed": false,
          "internalType": "string",
          "name": "description",
          "type": "string"
        },
        {
          "indexed": false,
          "internalType": "string",
          "name": "evidence_cid",
          "type": "string"
        },
        {
          "indexed": false,
          "internalType": "address",
          "name": "uploader",
          "type": "address"
        },
        {
          "indexed": false,
          "internalType": "uint256",
          "name": "timestamp",
          "type": "uint256"
        }
      ],
      "name": "EvidenceAdded",
      "type": "event"
    },
    {
      "anonymous": false,
      "inputs": [
        {
          "indexed": false,
          "internalType": "string",
          "name": "ipfs_hash",
          "type": "string"
        },
        {
          "indexed": false,
          "internalType": "address",
          "name": "downloader",
          "type": "address"
        },
        {
          "indexed": false,
          "internalType": "uint256",
          "name": "timestamp",
          "type": "uint256"
        }
      ],
      "name": "EvidenceDownloaded",
      "type": "event"
    },
    {
      "anonymous": false,
      "inputs": [
        {
          "indexed": false,
          "internalType": "string",
          "name": "transactionType",
          "type": "string"
        },
        {
          "indexed": false,
          "internalType": "address",
          "name": "userAddress",
          "type": "address"
        },
        {
          "indexed": false,
          "internalType": "uint256",
          "name": "timestamp",
          "type": "uint256"
        },
        {
          "indexed": false,
          "internalType": "string",
          "name": "status",
          "type": "string"
        }
      ],
      "name": "NewTransaction",
      "type": "event"
    },
    {
      "inputs": [
        {
          "internalType": "address",
          "name": "add",
          "type": "address"
        }
      ],
      "name": "Login",
      "outputs": [
        {
          "internalType": "string",
          "name": "",
          "type": "string"
        }
      ],
      "stateMutability": "view",
      "type": "function"
    },
    {
      "inputs": [
        {
          "internalType": "uint256",
          "name": "_itemNo",
          "type": "uint256"
        },
        {
          "internalType": "string",
          "name": "_caseNumber",
          "type": "string"
        },
        {
          "internalType": "string",
          "name": "_description",
          "type": "string"
        },
        {
          "internalType": "string",
          "name": "_location_Collection",
          "type": "string"
        },
        {
          "internalType": "string",
          "name": "_evidenceCID",
          "type": "string"
        }
      ],
      "name": "addEvidence",
      "outputs": [],
      "stateMutability": "nonpayable",
      "type": "function"
    },
    {
      "inputs": [
        {
          "internalType": "string",
          "name": "_caseNo",
          "type": "string"
        },
        {
          "internalType": "string",
          "name": "_caseDescription",
          "type": "string"
        },
        {
          "internalType": "uint256",
          "name": "_noParticipants",
          "type": "uint256"
        },
        {
          "internalType": "address[]",
          "name": "_participants",
          "type": "address[]"
        }
      ],
      "name": "addNewCase",
      "outputs": [],
      "stateMutability": "nonpayable",
      "type": "function"
    },
    {
      "inputs": [
        {
          "internalType": "string",
          "name": "_name",
          "type": "string"
        },
        {
          "internalType": "address",
          "name": "_useraddress",
          "type": "address"
        },
        {
          "internalType": "string",
          "name": "_position",
          "type": "string"
        }
      ],
      "name": "addUser",
      "outputs": [],
      "stateMutability": "nonpayable",
      "type": "function"
    },
    {
      "inputs": [
        {
          "internalType": "uint256",
          "name": "",
          "type": "uint256"
        }
      ],
      "name": "caseArray",
      "outputs": [
        {
          "internalType": "string",
          "name": "case_no",
          "type": "string"
        },
        {
          "internalType": "string",
          "name": "case_description",
          "type": "string"
        },
        {
          "internalType": "uint256",
          "name": "no_participants",
          "type": "uint256"
        }
      ],
      "stateMutability": "view",
      "type": "function"
    },
    {
      "inputs": [],
      "name": "countUsersByPosition",
      "outputs": [
        {
          "internalType": "uint256",
          "name": "judgeCount",
          "type": "uint256"
        },
        {
          "internalType": "uint256",
          "name": "forensicCount",
          "type": "uint256"
        },
        {
          "internalType": "uint256",
          "name": "lawEnforcementCount",
          "type": "uint256"
        },
        {
          "internalType": "uint256",
          "name": "prosecutorCount",
          "type": "uint256"
        }
      ],
      "stateMutability": "view",
      "type": "function"
    },
    {
      "inputs": [
        {
          "internalType": "uint256",
          "name": "",
          "type": "uint256"
        }
      ],
      "name": "evidenceArray",
      "outputs": [
        {
          "internalType": "uint256",
          "name": "item_Number",
          "type": "uint256"
        },
        {
          "internalType": "string",
          "name": "case_number",
          "type": "string"
        },
        {
          "internalType": "address",
          "name": "collector",
          "type": "address"
        },
        {
          "internalType": "string",
          "name": "evidence_description",
          "type": "string"
        },
        {
          "internalType": "string",
          "name": "collection_location",
          "type": "string"
        },
        {
          "internalType": "string",
          "name": "evidenceCID",
          "type": "string"
        }
      ],
      "stateMutability": "view",
      "type": "function"
    },
    {
      "inputs": [],
      "name": "getAllEvidence",
      "outputs": [
        {
          "components": [
            {
              "internalType": "uint256",
              "name": "item_Number",
              "type": "uint256"
            },
            {
              "internalType": "string",
              "name": "case_number",
              "type": "string"
            },
            {
              "internalType": "address",
              "name": "collector",
              "type": "address"
            },
            {
              "internalType": "string",
              "name": "evidence_description",
              "type": "string"
            },
            {
              "internalType": "string",
              "name": "collection_location",
              "type": "string"
            },
            {
              "internalType": "string",
              "name": "evidenceCID",
              "type": "string"
            }
          ],
          "internalType": "struct Blems.Evidence[]",
          "name": "",
          "type": "tuple[]"
        }
      ],
      "stateMutability": "view",
      "type": "function"
    },
    {
      "inputs": [
        {
          "internalType": "string",
          "name": "_casenumber",
          "type": "string"
        }
      ],
      "name": "getEvidence",
      "outputs": [
        {
          "components": [
            {
              "internalType": "uint256",
              "name": "item_Number",
              "type": "uint256"
            },
            {
              "internalType": "string",
              "name": "case_number",
              "type": "string"
            },
            {
              "internalType": "address",
              "name": "collector",
              "type": "address"
            },
            {
              "internalType": "string",
              "name": "evidence_description",
              "type": "string"
            },
            {
              "internalType": "string",
              "name": "collection_location",
              "type": "string"
            },
            {
              "internalType": "string",
              "name": "evidenceCID",
              "type": "string"
            }
          ],
          "internalType": "struct Blems.Evidence[]",
          "name": "",
          "type": "tuple[]"
        }
      ],
      "stateMutability": "view",
      "type": "function"
    },
    {
      "inputs": [],
      "name": "getUsers",
      "outputs": [
        {
          "components": [
            {
              "internalType": "string",
              "name": "name",
              "type": "string"
            },
            {
              "internalType": "address",
              "name": "userAddress",
              "type": "address"
            },
            {
              "internalType": "string",
              "name": "position",
              "type": "string"
            }
          ],
          "internalType": "struct Blems.User[]",
          "name": "",
          "type": "tuple[]"
        }
      ],
      "stateMutability": "view",
      "type": "function"
    },
    {
      "inputs": [
        {
          "internalType": "address",
          "name": "_useraddress",
          "type": "address"
        }
      ],
      "name": "getmyCase",
      "outputs": [
        {
          "components": [
            {
              "internalType": "string",
              "name": "case_no",
              "type": "string"
            },
            {
              "internalType": "string",
              "name": "case_description",
              "type": "string"
            },
            {
              "internalType": "uint256",
              "name": "no_participants",
              "type": "uint256"
            },
            {
              "internalType": "address[]",
              "name": "participants",
              "type": "address[]"
            }
          ],
          "internalType": "struct Blems.Case[]",
          "name": "",
          "type": "tuple[]"
        }
      ],
      "stateMutability": "view",
      "type": "function"
    },
    {
      "inputs": [],
      "name": "i_owner",
      "outputs": [
        {
          "internalType": "address",
          "name": "",
          "type": "address"
        }
      ],
      "stateMutability": "view",
      "type": "function"
    },
    {
      "inputs": [
        {
          "internalType": "uint256",
          "name": "",
          "type": "uint256"
        }
      ],
      "name": "transactionsArray",
      "outputs": [
        {
          "internalType": "string",
          "name": "transactionType",
          "type": "string"
        },
        {
          "internalType": "address",
          "name": "userAddress",
          "type": "address"
        },
        {
          "internalType": "uint256",
          "name": "timestamp",
          "type": "uint256"
        },
        {
          "internalType": "string",
          "name": "status",
          "type": "string"
        }
      ],
      "stateMutability": "view",
      "type": "function"
    },
    {
      "inputs": [
        {
          "internalType": "uint256",
          "name": "",
          "type": "uint256"
        }
      ],
      "name": "userArray",
      "outputs": [
        {
          "internalType": "string",
          "name": "name",
          "type": "string"
        },
        {
          "internalType": "address",
          "name": "userAddress",
          "type": "address"
        },
        {
          "internalType": "string",
          "name": "position",
          "type": "string"
        }
      ],
      "stateMutability": "view",
      "type": "function"
    }
  ],
  "bytecode": "0x60806040523480156200001157600080fd5b50336000806101000a81548173ffffffffffffffffffffffffffffffffffffffff021916908373ffffffffffffffffffffffffffffffffffffffff1602179055506040518060400160405280600581526020017f61646d696e000000000000000000000000000000000000000000000000000000815250600560008060009054906101000a900473ffffffffffffffffffffffffffffffffffffffff1673ffffffffffffffffffffffffffffffffffffffff1673ffffffffffffffffffffffffffffffffffffffff1681526020019081526020016000206002019081620000f991906200037a565b5062000461565b600081519050919050565b7f4e487b7100000000000000000000000000000000000000000000000000000000600052604160045260246000fd5b7f4e487b7100000000000000000000000000000000000000000000000000000000600052602260045260246000fd5b600060028204905060018216806200018257607f821691505b6020821081036200019857620001976200013a565b5b50919050565b60008190508160005260206000209050919050565b60006020601f8301049050919050565b600082821b905092915050565b600060088302620002027fffffffffffffffffffffffffffffffffffffffffffffffffffffffffffffffff82620001c3565b6200020e8683620001c3565b95508019841693508086168417925050509392505050565b6000819050919050565b6000819050919050565b60006200025b620002556200024f8462000226565b62000230565b62000226565b9050919050565b6000819050919050565b62000277836200023a565b6200028f620002868262000262565b848454620001d0565b825550505050565b600090565b620002a662000297565b620002b38184846200026c565b505050565b5b81811015620002db57620002cf6000826200029c565b600181019050620002b9565b5050565b601f8211156200032a57620002f4816200019e565b620002ff84620001b3565b810160208510156200030f578190505b620003276200031e85620001b3565b830182620002b8565b50505b505050565b600082821c905092915050565b60006200034f600019846008026200032f565b1980831691505092915050565b60006200036a83836200033c565b9150826002028217905092915050565b620003858262000100565b67ffffffffffffffff811115620003a157620003a06200010b565b5b620003ad825462000169565b620003ba828285620002df565b600060209050601f831160018114620003f25760008415620003dd578287015190505b620003e985826200035c565b86555062000459565b601f19841662000402866200019e565b60005b828110156200042c5784890151825560018201915060208501945060208101905062000405565b868310156200044c578489015162000448601f8916826200033c565b8355505b6001600288020188555050505b505050505050565b61349180620004716000396000f3fe608060405234801561001057600080fd5b50600436106100e95760003560e01c8063b16c6ee71161008c578063dba6335f11610066578063dba6335f14610277578063e210ecee14610295578063eecc1c95146102c8578063f51097cd146102f8576100e9565b8063b16c6ee71461020d578063c22cf0171461023d578063d4b317311461025b576100e9565b80634b21f46f116100c85780634b21f46f1461015a57806365e6b6bf1461018a57806388aae880146101bc578063aef82428146101f1576100e9565b8062ce8e3e146100ee578063383684591461010c57806341209af114610128575b600080fd5b6100f6610319565b60405161010391906121e5565b60405180910390f35b6101266004803603810190610121919061247a565b6104f2565b005b610142600480360381019061013d9190612535565b610749565b604051610151939291906125bb565b60405180910390f35b610174600480360381019061016f9190612600565b6108b3565b604051610181919061281e565b60405180910390f35b6101a4600480360381019061019f9190612535565b610b0d565b6040516101b39392919061284f565b60405180910390f35b6101d660048036038101906101d19190612535565b610c57565b6040516101e896959493929190612894565b60405180910390f35b61020b60048036038101906102069190612911565b610ee3565b005b610227600480360381019061022291906129fc565b6111b2565b6040516102349190612ba5565b60405180910390f35b6102456114d7565b6040516102529190612ba5565b60405180910390f35b61027560048036038101906102709190612bc7565b6117de565b005b61027f611974565b60405161028c9190612c52565b60405180910390f35b6102af60048036038101906102aa9190612535565b611998565b6040516102bf9493929190612c6d565b60405180910390f35b6102e260048036038101906102dd9190612600565b611b08565b6040516102ef9190612cc0565b60405180910390f35b610300611bdc565b6040516103109493929190612ce2565b60405180910390f35b60606001805480602002602001604051908101604052809291908181526020016000905b828210156104e9578382906000526020600020906003020160405180606001604052908160008201805461037090612d56565b80601f016020809104026020016040519081016040528092919081815260200182805461039c90612d56565b80156103e95780601f106103be576101008083540402835291602001916103e9565b820191906000526020600020905b8154815290600101906020018083116103cc57829003601f168201915b505050505081526020016001820160009054906101000a900473ffffffffffffffffffffffffffffffffffffffff1673ffffffffffffffffffffffffffffffffffffffff1673ffffffffffffffffffffffffffffffffffffffff16815260200160028201805461045890612d56565b80601f016020809104026020016040519081016040528092919081815260200182805461048490612d56565b80156104d15780601f106104a6576101008083540402835291602001916104d1565b820191906000526020600020905b8154815290600101906020018083116104b457829003601f168201915b5050505050815250508152602001906001019061033d565b50505050905090565b60006040518060800160405280868152602001858152602001848152602001838152509050600381908060018154018082558091505060019003906000526020600020906004020160009091909190915060008201518160000190816105589190612f33565b50602082015181600101908161056e9190612f33565b50604082015181600201556060820151816003019080519060200190610595929190611f54565b50505060005b825181101561068f57600660008483815181106105bb576105ba613005565b5b602002602001015173ffffffffffffffffffffffffffffffffffffffff1673ffffffffffffffffffffffffffffffffffffffff168152602001908152602001600020829080600181540180825580915050600190039060005260206000209060040201600090919091909150600082015181600001908161063c9190612f33565b5060208201518160010190816106529190612f33565b50604082015181600201556060820151816003019080519060200190610679929190611f54565b505050808061068790613063565b91505061059b565b507fe37eb4297206158cda1099bf25830d4e6a5479f0a2ebcc4cd4c355673950da11858585856040516106c5949392919061311a565b60405180910390a16107426040518060400160405280600c81526020017f416464204e657720436173650000000000000000000000000000000000000000815250336040518060400160405280600781526020017f5375636365737300000000000000000000000000000000000000000000000000815250611e2b565b5050505050565b6001818154811061075957600080fd5b906000526020600020906003020160009150905080600001805461077c90612d56565b80601f01602080910402602001604051908101604052809291908181526020018280546107a890612d56565b80156107f55780601f106107ca576101008083540402835291602001916107f5565b820191906000526020600020905b8154815290600101906020018083116107d857829003601f168201915b5050505050908060010160009054906101000a900473ffffffffffffffffffffffffffffffffffffffff169080600201805461083090612d56565b80601f016020809104026020016040519081016040528092919081815260200182805461085c90612d56565b80156108a95780601f1061087e576101008083540402835291602001916108a9565b820191906000526020600020905b81548152906001019060200180831161088c57829003601f168201915b5050505050905083565b6060600660008373ffffffffffffffffffffffffffffffffffffffff1673ffffffffffffffffffffffffffffffffffffffff168152602001908152602001600020805480602002602001604051908101604052809291908181526020016000905b82821015610b02578382906000526020600020906004020160405180608001604052908160008201805461094790612d56565b80601f016020809104026020016040519081016040528092919081815260200182805461097390612d56565b80156109c05780601f10610995576101008083540402835291602001916109c0565b820191906000526020600020905b8154815290600101906020018083116109a357829003601f168201915b505050505081526020016001820180546109d990612d56565b80601f0160208091040260200160405190810160405280929190818152602001828054610a0590612d56565b8015610a525780601f10610a2757610100808354040283529160200191610a52565b820191906000526020600020905b815481529060010190602001808311610a3557829003601f168201915b505050505081526020016002820154815260200160038201805480602002602001604051908101604052809291908181526020018280548015610aea57602002820191906000526020600020905b8160009054906101000a900473ffffffffffffffffffffffffffffffffffffffff1673ffffffffffffffffffffffffffffffffffffffff1681526020019060010190808311610aa0575b50505050508152505081526020019060010190610914565b505050509050919050565b60038181548110610b1d57600080fd5b9060005260206000209060040201600091509050806000018054610b4090612d56565b80601f0160208091040260200160405190810160405280929190818152602001828054610b6c90612d56565b8015610bb95780601f10610b8e57610100808354040283529160200191610bb9565b820191906000526020600020905b815481529060010190602001808311610b9c57829003601f168201915b505050505090806001018054610bce90612d56565b80601f0160208091040260200160405190810160405280929190818152602001828054610bfa90612d56565b8015610c475780601f10610c1c57610100808354040283529160200191610c47565b820191906000526020600020905b815481529060010190602001808311610c2a57829003601f168201915b5050505050908060020154905083565b60028181548110610c6757600080fd5b9060005260206000209060060201600091509050806000015490806001018054610c9090612d56565b80601f0160208091040260200160405190810160405280929190818152602001828054610cbc90612d56565b8015610d095780601f10610cde57610100808354040283529160200191610d09565b820191906000526020600020905b815481529060010190602001808311610cec57829003601f168201915b5050505050908060020160009054906101000a900473ffffffffffffffffffffffffffffffffffffffff1690806003018054610d4490612d56565b80601f0160208091040260200160405190810160405280929190818152602001828054610d7090612d56565b8015610dbd5780601f10610d9257610100808354040283529160200191610dbd565b820191906000526020600020905b815481529060010190602001808311610da057829003601f168201915b505050505090806004018054610dd290612d56565b80601f0160208091040260200160405190810160405280929190818152602001828054610dfe90612d56565b8015610e4b5780601f10610e2057610100808354040283529160200191610e4b565b820191906000526020600020905b815481529060010190602001808311610e2e57829003601f168201915b505050505090806005018054610e6090612d56565b80601f0160208091040260200160405190810160405280929190818152602001828054610e8c90612d56565b8015610ed95780601f10610eae57610100808354040283529160200191610ed9565b820191906000526020600020905b815481529060010190602001808311610ebc57829003601f168201915b5050505050905086565b60006040518060c001604052808781526020018681526020013373ffffffffffffffffffffffffffffffffffffffff1681526020018581526020018481526020018381525090506002819080600181540180825580915050600190039060005260206000209060060201600090919091909150600082015181600001556020820151816001019081610f759190612f33565b5060408201518160020160006101000a81548173ffffffffffffffffffffffffffffffffffffffff021916908373ffffffffffffffffffffffffffffffffffffffff1602179055506060820151816003019081610fd29190612f33565b506080820151816004019081610fe89190612f33565b5060a0820151816005019081610ffe9190612f33565b50505060078560405161101191906131b0565b90815260200160405180910390208190806001815401808255809150506001900390600052602060002090600602016000909190919091506000820151816000015560208201518160010190816110689190612f33565b5060408201518160020160006101000a81548173ffffffffffffffffffffffffffffffffffffffff021916908373ffffffffffffffffffffffffffffffffffffffff16021790555060608201518160030190816110c59190612f33565b5060808201518160040190816110db9190612f33565b5060a08201518160050190816110f19190612f33565b5050507f14c5f6ffce9b973dd3287c36892cf87c3eea7a48528d5700e0ff1bc5fb98b19486868685334260405161112d969594939291906131c7565b60405180910390a16111aa6040518060400160405280600c81526020017f4164642045766964656e63650000000000000000000000000000000000000000815250336040518060400160405280600781526020017f5375636365737300000000000000000000000000000000000000000000000000815250611e2b565b505050505050565b60606007826040516111c491906131b0565b9081526020016040518091039020805480602002602001604051908101604052809291908181526020016000905b828210156114cc57838290600052602060002090600602016040518060c00160405290816000820154815260200160018201805461122f90612d56565b80601f016020809104026020016040519081016040528092919081815260200182805461125b90612d56565b80156112a85780601f1061127d576101008083540402835291602001916112a8565b820191906000526020600020905b81548152906001019060200180831161128b57829003601f168201915b505050505081526020016002820160009054906101000a900473ffffffffffffffffffffffffffffffffffffffff1673ffffffffffffffffffffffffffffffffffffffff1673ffffffffffffffffffffffffffffffffffffffff16815260200160038201805461131790612d56565b80601f016020809104026020016040519081016040528092919081815260200182805461134390612d56565b80156113905780601f1061136557610100808354040283529160200191611390565b820191906000526020600020905b81548152906001019060200180831161137357829003601f168201915b505050505081526020016004820180546113a990612d56565b80601f01602080910402602001604051908101604052809291908181526020018280546113d590612d56565b80156114225780601f106113f757610100808354040283529160200191611422565b820191906000526020600020905b81548152906001019060200180831161140557829003601f168201915b5050505050815260200160058201805461143b90612d56565b80601f016020809104026020016040519081016040528092919081815260200182805461146790612d56565b80156114b45780601f10611489576101008083540402835291602001916114b4565b820191906000526020600020905b81548152906001019060200180831161149757829003601f168201915b505050505081525050815260200190600101906111f2565b505050509050919050565b60606002805480602002602001604051908101604052809291908181526020016000905b828210156117d557838290600052602060002090600602016040518060c00160405290816000820154815260200160018201805461153890612d56565b80601f016020809104026020016040519081016040528092919081815260200182805461156490612d56565b80156115b15780601f10611586576101008083540402835291602001916115b1565b820191906000526020600020905b81548152906001019060200180831161159457829003601f168201915b505050505081526020016002820160009054906101000a900473ffffffffffffffffffffffffffffffffffffffff1673ffffffffffffffffffffffffffffffffffffffff1673ffffffffffffffffffffffffffffffffffffffff16815260200160038201805461162090612d56565b80601f016020809104026020016040519081016040528092919081815260200182805461164c90612d56565b80156116995780601f1061166e57610100808354040283529160200191611699565b820191906000526020600020905b81548152906001019060200180831161167c57829003601f168201915b505050505081526020016004820180546116b290612d56565b80601f01602080910402602001604051908101604052809291908181526020018280546116de90612d56565b801561172b5780601f106117005761010080835404028352916020019161172b565b820191906000526020600020905b81548152906001019060200180831161170e57829003601f168201915b5050505050815260200160058201805461174490612d56565b80601f016020809104026020016040519081016040528092919081815260200182805461177090612d56565b80156117bd5780601f10611792576101008083540402835291602001916117bd565b820191906000526020600020905b8154815290600101906020018083116117a057829003601f168201915b505050505081525050815260200190600101906114fb565b50505050905090565b600060405180606001604052808581526020018473ffffffffffffffffffffffffffffffffffffffff168152602001838152509050600181908060018154018082558091505060019003906000526020600020906003020160009091909190915060008201518160000190816118549190612f33565b5060208201518160010160006101000a81548173ffffffffffffffffffffffffffffffffffffffff021916908373ffffffffffffffffffffffffffffffffffffffff16021790555060408201518160020190816118b19190612f33565b5050508060056000836020015173ffffffffffffffffffffffffffffffffffffffff1673ffffffffffffffffffffffffffffffffffffffff168152602001908152602001600020600082015181600001908161190d9190612f33565b5060208201518160010160006101000a81548173ffffffffffffffffffffffffffffffffffffffff021916908373ffffffffffffffffffffffffffffffffffffffff160217905550604082015181600201908161196a9190612f33565b5090505050505050565b60008054906101000a900473ffffffffffffffffffffffffffffffffffffffff1681565b600481815481106119a857600080fd5b90600052602060002090600402016000915090508060000180546119cb90612d56565b80601f01602080910402602001604051908101604052809291908181526020018280546119f790612d56565b8015611a445780601f10611a1957610100808354040283529160200191611a44565b820191906000526020600020905b815481529060010190602001808311611a2757829003601f168201915b5050505050908060010160009054906101000a900473ffffffffffffffffffffffffffffffffffffffff1690806002015490806003018054611a8590612d56565b80601f0160208091040260200160405190810160405280929190818152602001828054611ab190612d56565b8015611afe5780601f10611ad357610100808354040283529160200191611afe565b820191906000526020600020905b815481529060010190602001808311611ae157829003601f168201915b5050505050905084565b6060600560008373ffffffffffffffffffffffffffffffffffffffff1673ffffffffffffffffffffffffffffffffffffffff1681526020019081526020016000206002018054611b5790612d56565b80601f0160208091040260200160405190810160405280929190818152602001828054611b8390612d56565b8015611bd05780601f10611ba557610100808354040283529160200191611bd0565b820191906000526020600020905b815481529060010190602001808311611bb357829003601f168201915b50505050509050919050565b60008060008060005b600180549050811015611e2457604051602001611c0190613289565b6040516020818303038152906040528051906020012060018281548110611c2b57611c2a613005565b5b9060005260206000209060030201600201604051602001611c4c9190613321565b6040516020818303038152906040528051906020012003611c7a578480611c7290613063565b955050611e11565b604051602001611c8990613384565b6040516020818303038152906040528051906020012060018281548110611cb357611cb2613005565b5b9060005260206000209060030201600201604051602001611cd49190613321565b6040516020818303038152906040528051906020012003611d02578380611cfa90613063565b945050611e10565b604051602001611d11906133e5565b6040516020818303038152906040528051906020012060018281548110611d3b57611d3a613005565b5b9060005260206000209060030201600201604051602001611d5c9190613321565b6040516020818303038152906040528051906020012003611d8a578280611d8290613063565b935050611e0f565b604051602001611d9990613446565b6040516020818303038152906040528051906020012060018281548110611dc357611dc2613005565b5b9060005260206000209060030201600201604051602001611de49190613321565b6040516020818303038152906040528051906020012003611e0e578180611e0a90613063565b9250505b5b5b5b8080611e1c90613063565b915050611be5565b5090919293565b600060405180608001604052808581526020018473ffffffffffffffffffffffffffffffffffffffff16815260200142815260200183815250905060048190806001815401808255809150506001900390600052602060002090600402016000909190919091506000820151816000019081611ea79190612f33565b5060208201518160010160006101000a81548173ffffffffffffffffffffffffffffffffffffffff021916908373ffffffffffffffffffffffffffffffffffffffff160217905550604082015181600201556060820151816003019081611f0e9190612f33565b5050507f9777ca6a69ece45e669964ff3754987bbc86d13fed4bb38a3b25774a0aa79c1084844285604051611f469493929190612c6d565b60405180910390a150505050565b828054828255906000526020600020908101928215611fcd579160200282015b82811115611fcc5782518260006101000a81548173ffffffffffffffffffffffffffffffffffffffff021916908373ffffffffffffffffffffffffffffffffffffffff16021790555091602001919060010190611f74565b5b509050611fda9190611fde565b5090565b5b80821115611ff7576000816000905550600101611fdf565b5090565b600081519050919050565b600082825260208201905092915050565b6000819050602082019050919050565b600081519050919050565b600082825260208201905092915050565b60005b83811015612061578082015181840152602081019050612046565b60008484015250505050565b6000601f19601f8301169050919050565b600061208982612027565b6120938185612032565b93506120a3818560208601612043565b6120ac8161206d565b840191505092915050565b600073ffffffffffffffffffffffffffffffffffffffff82169050919050565b60006120e2826120b7565b9050919050565b6120f2816120d7565b82525050565b60006060830160008301518482036000860152612115828261207e565b915050602083015161212a60208601826120e9565b5060408301518482036040860152612142828261207e565b9150508091505092915050565b600061215b83836120f8565b905092915050565b6000602082019050919050565b600061217b82611ffb565b6121858185612006565b93508360208202850161219785612017565b8060005b858110156121d357848403895281516121b4858261214f565b94506121bf83612163565b925060208a0199505060018101905061219b565b50829750879550505050505092915050565b600060208201905081810360008301526121ff8184612170565b905092915050565b6000604051905090565b600080fd5b600080fd5b600080fd5b600080fd5b7f4e487b7100000000000000000000000000000000000000000000000000000000600052604160045260246000fd5b61225d8261206d565b810181811067ffffffffffffffff8211171561227c5761227b612225565b5b80604052505050565b600061228f612207565b905061229b8282612254565b919050565b600067ffffffffffffffff8211156122bb576122ba612225565b5b6122c48261206d565b9050602081019050919050565b82818337600083830152505050565b60006122f36122ee846122a0565b612285565b90508281526020810184848401111561230f5761230e612220565b5b61231a8482856122d1565b509392505050565b600082601f8301126123375761233661221b565b5b81356123478482602086016122e0565b91505092915050565b6000819050919050565b61236381612350565b811461236e57600080fd5b50565b6000813590506123808161235a565b92915050565b600067ffffffffffffffff8211156123a1576123a0612225565b5b602082029050602081019050919050565b600080fd5b6123c0816120d7565b81146123cb57600080fd5b50565b6000813590506123dd816123b7565b92915050565b60006123f66123f184612386565b612285565b90508083825260208201905060208402830185811115612419576124186123b2565b5b835b81811015612442578061242e88826123ce565b84526020840193505060208101905061241b565b5050509392505050565b600082601f8301126124615761246061221b565b5b81356124718482602086016123e3565b91505092915050565b6000806000806080858703121561249457612493612211565b5b600085013567ffffffffffffffff8111156124b2576124b1612216565b5b6124be87828801612322565b945050602085013567ffffffffffffffff8111156124df576124de612216565b5b6124eb87828801612322565b93505060406124fc87828801612371565b925050606085013567ffffffffffffffff81111561251d5761251c612216565b5b6125298782880161244c565b91505092959194509250565b60006020828403121561254b5761254a612211565b5b600061255984828501612371565b91505092915050565b600082825260208201905092915050565b600061257e82612027565b6125888185612562565b9350612598818560208601612043565b6125a18161206d565b840191505092915050565b6125b5816120d7565b82525050565b600060608201905081810360008301526125d58186612573565b90506125e460208301856125ac565b81810360408301526125f68184612573565b9050949350505050565b60006020828403121561261657612615612211565b5b6000612624848285016123ce565b91505092915050565b600081519050919050565b600082825260208201905092915050565b6000819050602082019050919050565b61266281612350565b82525050565b600081519050919050565b600082825260208201905092915050565b6000819050602082019050919050565b60006126a083836120e9565b60208301905092915050565b6000602082019050919050565b60006126c482612668565b6126ce8185612673565b93506126d983612684565b8060005b8381101561270a5781516126f18882612694565b97506126fc836126ac565b9250506001810190506126dd565b5085935050505092915050565b60006080830160008301518482036000860152612734828261207e565b9150506020830151848203602086015261274e828261207e565b91505060408301516127636040860182612659565b506060830151848203606086015261277b82826126b9565b9150508091505092915050565b60006127948383612717565b905092915050565b6000602082019050919050565b60006127b48261262d565b6127be8185612638565b9350836020820285016127d085612649565b8060005b8581101561280c57848403895281516127ed8582612788565b94506127f88361279c565b925060208a019950506001810190506127d4565b50829750879550505050505092915050565b6000602082019050818103600083015261283881846127a9565b905092915050565b61284981612350565b82525050565b600060608201905081810360008301526128698186612573565b9050818103602083015261287d8185612573565b905061288c6040830184612840565b949350505050565b600060c0820190506128a96000830189612840565b81810360208301526128bb8188612573565b90506128ca60408301876125ac565b81810360608301526128dc8186612573565b905081810360808301526128f08185612573565b905081810360a08301526129048184612573565b9050979650505050505050565b600080600080600060a0868803121561292d5761292c612211565b5b600061293b88828901612371565b955050602086013567ffffffffffffffff81111561295c5761295b612216565b5b61296888828901612322565b945050604086013567ffffffffffffffff81111561298957612988612216565b5b61299588828901612322565b935050606086013567ffffffffffffffff8111156129b6576129b5612216565b5b6129c288828901612322565b925050608086013567ffffffffffffffff8111156129e3576129e2612216565b5b6129ef88828901612322565b9150509295509295909350565b600060208284031215612a1257612a11612211565b5b600082013567ffffffffffffffff811115612a3057612a2f612216565b5b612a3c84828501612322565b91505092915050565b600081519050919050565b600082825260208201905092915050565b6000819050602082019050919050565b600060c083016000830151612a896000860182612659565b5060208301518482036020860152612aa1828261207e565b9150506040830151612ab660408601826120e9565b5060608301518482036060860152612ace828261207e565b91505060808301518482036080860152612ae8828261207e565b91505060a083015184820360a0860152612b02828261207e565b9150508091505092915050565b6000612b1b8383612a71565b905092915050565b6000602082019050919050565b6000612b3b82612a45565b612b458185612a50565b935083602082028501612b5785612a61565b8060005b85811015612b935784840389528151612b748582612b0f565b9450612b7f83612b23565b925060208a01995050600181019050612b5b565b50829750879550505050505092915050565b60006020820190508181036000830152612bbf8184612b30565b905092915050565b600080600060608486031215612be057612bdf612211565b5b600084013567ffffffffffffffff811115612bfe57612bfd612216565b5b612c0a86828701612322565b9350506020612c1b868287016123ce565b925050604084013567ffffffffffffffff811115612c3c57612c3b612216565b5b612c4886828701612322565b9150509250925092565b6000602082019050612c6760008301846125ac565b92915050565b60006080820190508181036000830152612c878187612573565b9050612c9660208301866125ac565b612ca36040830185612840565b8181036060830152612cb58184612573565b905095945050505050565b60006020820190508181036000830152612cda8184612573565b905092915050565b6000608082019050612cf76000830187612840565b612d046020830186612840565b612d116040830185612840565b612d1e6060830184612840565b95945050505050565b7f4e487b7100000000000000000000000000000000000000000000000000000000600052602260045260246000fd5b60006002820490506001821680612d6e57607f821691505b602082108103612d8157612d80612d27565b5b50919050565b60008190508160005260206000209050919050565b60006020601f8301049050919050565b600082821b905092915050565b600060088302612de97fffffffffffffffffffffffffffffffffffffffffffffffffffffffffffffffff82612dac565b612df38683612dac565b95508019841693508086168417925050509392505050565b6000819050919050565b6000612e30612e2b612e2684612350565b612e0b565b612350565b9050919050565b6000819050919050565b612e4a83612e15565b612e5e612e5682612e37565b848454612db9565b825550505050565b600090565b612e73612e66565b612e7e818484612e41565b505050565b5b81811015612ea257612e97600082612e6b565b600181019050612e84565b5050565b601f821115612ee757612eb881612d87565b612ec184612d9c565b81016020851015612ed0578190505b612ee4612edc85612d9c565b830182612e83565b50505b505050565b600082821c905092915050565b6000612f0a60001984600802612eec565b1980831691505092915050565b6000612f238383612ef9565b9150826002028217905092915050565b612f3c82612027565b67ffffffffffffffff811115612f5557612f54612225565b5b612f5f8254612d56565b612f6a828285612ea6565b600060209050601f831160018114612f9d5760008415612f8b578287015190505b612f958582612f17565b865550612ffd565b601f198416612fab86612d87565b60005b82811015612fd357848901518255600182019150602085019450602081019050612fae565b86831015612ff05784890151612fec601f891682612ef9565b8355505b6001600288020188555050505b505050505050565b7f4e487b7100000000000000000000000000000000000000000000000000000000600052603260045260246000fd5b7f4e487b7100000000000000000000000000000000000000000000000000000000600052601160045260246000fd5b600061306e82612350565b91507fffffffffffffffffffffffffffffffffffffffffffffffffffffffffffffffff82036130a05761309f613034565b5b600182019050919050565b600082825260208201905092915050565b60006130c782612668565b6130d181856130ab565b93506130dc83612684565b8060005b8381101561310d5781516130f48882612694565b97506130ff836126ac565b9250506001810190506130e0565b5085935050505092915050565b600060808201905081810360008301526131348187612573565b905081810360208301526131488186612573565b90506131576040830185612840565b818103606083015261316981846130bc565b905095945050505050565b600081905092915050565b600061318a82612027565b6131948185613174565b93506131a4818560208601612043565b80840191505092915050565b60006131bc828461317f565b915081905092915050565b600060c0820190506131dc6000830189612840565b81810360208301526131ee8188612573565b905081810360408301526132028187612573565b905081810360608301526132168186612573565b905061322560808301856125ac565b61323260a0830184612840565b979650505050505050565b7f6a75646765000000000000000000000000000000000000000000000000000000600082015250565b6000613273600583613174565b915061327e8261323d565b600582019050919050565b600061329482613266565b9150819050919050565b600081546132ab81612d56565b6132b58186613174565b945060018216600081146132d057600181146132e557613318565b60ff1983168652811515820286019350613318565b6132ee85612d87565b60005b83811015613310578154818901526001820191506020810190506132f1565b838801955050505b50505092915050565b600061332d828461329e565b915081905092915050565b7f666f72656e736963000000000000000000000000000000000000000000000000600082015250565b600061336e600883613174565b915061337982613338565b600882019050919050565b600061338f82613361565b9150819050919050565b7f6c617720656e666f7263656d656e740000000000000000000000000000000000600082015250565b60006133cf600f83613174565b91506133da82613399565b600f82019050919050565b60006133f0826133c2565b9150819050919050565b7f70726f73656375746f7200000000000000000000000000000000000000000000600082015250565b6000613430600a83613174565b915061343b826133fa565b600a82019050919050565b600061345182613423565b915081905091905056fea26469706673582212204b0cc3a8df4815efcd80789c67acbb18fb086073ae7a300ba573c5c81b5dc02764736f6c63430008130033",
  "linkReferences": {},
  "deployedLinkReferences": {}
}