{
  "_format": "hh-sol-artifact-1",
  "contractName": "Legal",
  "sourceName": "contracts/Blems.sol",
  "abi": [
    {
      "inputs": [],
      "stateMutability": "nonpayable",
      "type": "constructor"
    },
    {
      "inputs": [
        {
          "internalType": "address",
          "name": "add",
          "type": "address"
        }
      ],
      "name": "Login",
      "outputs": [
        {
          "internalType": "string",
          "name": "",
          "type": "string"
        }
      ],
      "stateMutability": "view",
      "type": "function"
    },
    {
      "inputs": [
        {
          "internalType": "uint256",
          "name": "_itemNo",
          "type": "uint256"
        },
        {
          "internalType": "string",
          "name": "_caseNumber",
          "type": "string"
        },
        {
          "internalType": "string",
          "name": "_description",
          "type": "string"
        },
        {
          "internalType": "string",
          "name": "_location_Collection",
          "type": "string"
        },
        {
          "internalType": "string",
          "name": "_evidenceCID",
          "type": "string"
        }
      ],
      "name": "addEvidence",
      "outputs": [],
      "stateMutability": "nonpayable",
      "type": "function"
    },
    {
      "inputs": [
        {
          "internalType": "string",
          "name": "_caseNo",
          "type": "string"
        },
        {
          "internalType": "string",
          "name": "_caseDescription",
          "type": "string"
        },
        {
          "internalType": "uint256",
          "name": "_noParticipants",
          "type": "uint256"
        },
        {
          "internalType": "address[]",
          "name": "_participants",
          "type": "address[]"
        }
      ],
      "name": "addNewCase",
      "outputs": [],
      "stateMutability": "nonpayable",
      "type": "function"
    },
    {
      "inputs": [
        {
          "internalType": "string",
          "name": "_name",
          "type": "string"
        },
        {
          "internalType": "address",
          "name": "_useraddress",
          "type": "address"
        },
        {
          "internalType": "string",
          "name": "_position",
          "type": "string"
        }
      ],
      "name": "addUser",
      "outputs": [],
      "stateMutability": "nonpayable",
      "type": "function"
    },
    {
      "inputs": [
        {
          "internalType": "uint256",
          "name": "",
          "type": "uint256"
        }
      ],
      "name": "caseArray",
      "outputs": [
        {
          "internalType": "string",
          "name": "case_no",
          "type": "string"
        },
        {
          "internalType": "string",
          "name": "case_description",
          "type": "string"
        },
        {
          "internalType": "uint256",
          "name": "no_participants",
          "type": "uint256"
        }
      ],
      "stateMutability": "view",
      "type": "function"
    },
    {
      "inputs": [],
      "name": "countUsersByPosition",
      "outputs": [
        {
          "internalType": "uint256",
          "name": "judgeCount",
          "type": "uint256"
        },
        {
          "internalType": "uint256",
          "name": "forensicCount",
          "type": "uint256"
        },
        {
          "internalType": "uint256",
          "name": "lawEnforcementCount",
          "type": "uint256"
        },
        {
          "internalType": "uint256",
          "name": "prosecutorCount",
          "type": "uint256"
        }
      ],
      "stateMutability": "view",
      "type": "function"
    },
    {
      "inputs": [
        {
          "internalType": "uint256",
          "name": "",
          "type": "uint256"
        }
      ],
      "name": "evidenceArray",
      "outputs": [
        {
          "internalType": "uint256",
          "name": "item_Number",
          "type": "uint256"
        },
        {
          "internalType": "string",
          "name": "case_number",
          "type": "string"
        },
        {
          "internalType": "address",
          "name": "collector",
          "type": "address"
        },
        {
          "internalType": "string",
          "name": "evidence_description",
          "type": "string"
        },
        {
          "internalType": "string",
          "name": "collection_location",
          "type": "string"
        },
        {
          "internalType": "string",
          "name": "evidenceCID",
          "type": "string"
        }
      ],
      "stateMutability": "view",
      "type": "function"
    },
    {
      "inputs": [
        {
          "internalType": "string",
          "name": "_casenumber",
          "type": "string"
        }
      ],
      "name": "getEvidence",
      "outputs": [
        {
          "components": [
            {
              "internalType": "uint256",
              "name": "item_Number",
              "type": "uint256"
            },
            {
              "internalType": "string",
              "name": "case_number",
              "type": "string"
            },
            {
              "internalType": "address",
              "name": "collector",
              "type": "address"
            },
            {
              "internalType": "string",
              "name": "evidence_description",
              "type": "string"
            },
            {
              "internalType": "string",
              "name": "collection_location",
              "type": "string"
            },
            {
              "internalType": "string",
              "name": "evidenceCID",
              "type": "string"
            }
          ],
          "internalType": "struct Legal.Evidence[]",
          "name": "",
          "type": "tuple[]"
        }
      ],
      "stateMutability": "view",
      "type": "function"
    },
    {
      "inputs": [],
      "name": "getUsers",
      "outputs": [
        {
          "components": [
            {
              "internalType": "string",
              "name": "name",
              "type": "string"
            },
            {
              "internalType": "address",
              "name": "userAddress",
              "type": "address"
            },
            {
              "internalType": "string",
              "name": "position",
              "type": "string"
            }
          ],
          "internalType": "struct Legal.User[]",
          "name": "",
          "type": "tuple[]"
        }
      ],
      "stateMutability": "view",
      "type": "function"
    },
    {
      "inputs": [
        {
          "internalType": "address",
          "name": "_useraddress",
          "type": "address"
        }
      ],
      "name": "getmyCase",
      "outputs": [
        {
          "components": [
            {
              "internalType": "string",
              "name": "case_no",
              "type": "string"
            },
            {
              "internalType": "string",
              "name": "case_description",
              "type": "string"
            },
            {
              "internalType": "uint256",
              "name": "no_participants",
              "type": "uint256"
            },
            {
              "internalType": "address[]",
              "name": "participants",
              "type": "address[]"
            }
          ],
          "internalType": "struct Legal.Case[]",
          "name": "",
          "type": "tuple[]"
        }
      ],
      "stateMutability": "view",
      "type": "function"
    },
    {
      "inputs": [],
      "name": "i_owner",
      "outputs": [
        {
          "internalType": "address",
          "name": "",
          "type": "address"
        }
      ],
      "stateMutability": "view",
      "type": "function"
    },
    {
      "inputs": [
        {
          "internalType": "uint256",
          "name": "",
          "type": "uint256"
        }
      ],
      "name": "userArray",
      "outputs": [
        {
          "internalType": "string",
          "name": "name",
          "type": "string"
        },
        {
          "internalType": "address",
          "name": "userAddress",
          "type": "address"
        },
        {
          "internalType": "string",
          "name": "position",
          "type": "string"
        }
      ],
      "stateMutability": "view",
      "type": "function"
    }
  ],
  "bytecode": "0x60806040523480156200001157600080fd5b50336000806101000a81548173ffffffffffffffffffffffffffffffffffffffff021916908373ffffffffffffffffffffffffffffffffffffffff1602179055506040518060400160405280600581526020017f61646d696e000000000000000000000000000000000000000000000000000000815250600460008060009054906101000a900473ffffffffffffffffffffffffffffffffffffffff1673ffffffffffffffffffffffffffffffffffffffff1673ffffffffffffffffffffffffffffffffffffffff1681526020019081526020016000206002019081620000f991906200037a565b5062000461565b600081519050919050565b7f4e487b7100000000000000000000000000000000000000000000000000000000600052604160045260246000fd5b7f4e487b7100000000000000000000000000000000000000000000000000000000600052602260045260246000fd5b600060028204905060018216806200018257607f821691505b6020821081036200019857620001976200013a565b5b50919050565b60008190508160005260206000209050919050565b60006020601f8301049050919050565b600082821b905092915050565b600060088302620002027fffffffffffffffffffffffffffffffffffffffffffffffffffffffffffffffff82620001c3565b6200020e8683620001c3565b95508019841693508086168417925050509392505050565b6000819050919050565b6000819050919050565b60006200025b620002556200024f8462000226565b62000230565b62000226565b9050919050565b6000819050919050565b62000277836200023a565b6200028f620002868262000262565b848454620001d0565b825550505050565b600090565b620002a662000297565b620002b38184846200026c565b505050565b5b81811015620002db57620002cf6000826200029c565b600181019050620002b9565b5050565b601f8211156200032a57620002f4816200019e565b620002ff84620001b3565b810160208510156200030f578190505b620003276200031e85620001b3565b830182620002b8565b50505b505050565b600082821c905092915050565b60006200034f600019846008026200032f565b1980831691505092915050565b60006200036a83836200033c565b9150826002028217905092915050565b620003858262000100565b67ffffffffffffffff811115620003a157620003a06200010b565b5b620003ad825462000169565b620003ba828285620002df565b600060209050601f831160018114620003f25760008415620003dd578287015190505b620003e985826200035c565b86555062000459565b601f19841662000402866200019e565b60005b828110156200042c5784890151825560018201915060208501945060208101905062000405565b868310156200044c578489015162000448601f8916826200033c565b8355505b6001600288020188555050505b505050505050565b612b7080620004716000396000f3fe608060405234801561001057600080fd5b50600436106100b35760003560e01c8063aef8242811610071578063aef82428146101bb578063b16c6ee7146101d7578063d4b3173114610207578063dba6335f14610223578063eecc1c9514610241578063f51097cd14610271576100b3565b8062ce8e3e146100b857806338368459146100d657806341209af1146100f25780634b21f46f1461012457806365e6b6bf1461015457806388aae88014610186575b600080fd5b6100c0610292565b6040516100cd9190611a56565b60405180910390f35b6100f060048036038101906100eb9190611ceb565b61046b565b005b61010c60048036038101906101079190611da6565b610610565b60405161011b93929190611e2c565b60405180910390f35b61013e60048036038101906101399190611e71565b61077a565b60405161014b919061208f565b60405180910390f35b61016e60048036038101906101699190611da6565b6109d4565b60405161017d939291906120c0565b60405180910390f35b6101a0600480360381019061019b9190611da6565b610b1e565b6040516101b296959493929190612105565b60405180910390f35b6101d560048036038101906101d09190612182565b610daa565b005b6101f160048036038101906101ec919061226d565b610fc3565b6040516101fe9190612416565b60405180910390f35b610221600480360381019061021c9190612438565b6112e8565b005b61022b61147e565b60405161023891906124c3565b60405180910390f35b61025b60048036038101906102569190611e71565b6114a2565b60405161026891906124de565b60405180910390f35b610279611576565b6040516102899493929190612500565b60405180910390f35b60606001805480602002602001604051908101604052809291908181526020016000905b8282101561046257838290600052602060002090600302016040518060600160405290816000820180546102e990612574565b80601f016020809104026020016040519081016040528092919081815260200182805461031590612574565b80156103625780601f1061033757610100808354040283529160200191610362565b820191906000526020600020905b81548152906001019060200180831161034557829003601f168201915b505050505081526020016001820160009054906101000a900473ffffffffffffffffffffffffffffffffffffffff1673ffffffffffffffffffffffffffffffffffffffff1673ffffffffffffffffffffffffffffffffffffffff1681526020016002820180546103d190612574565b80601f01602080910402602001604051908101604052809291908181526020018280546103fd90612574565b801561044a5780601f1061041f5761010080835404028352916020019161044a565b820191906000526020600020905b81548152906001019060200180831161042d57829003601f168201915b505050505081525050815260200190600101906102b6565b50505050905090565b60006040518060800160405280868152602001858152602001848152602001838152509050600381908060018154018082558091505060019003906000526020600020906004020160009091909190915060008201518160000190816104d19190612751565b5060208201518160010190816104e79190612751565b5060408201518160020155606082015181600301908051906020019061050e9291906117c5565b50505060005b8251811015610608576005600084838151811061053457610533612823565b5b602002602001015173ffffffffffffffffffffffffffffffffffffffff1673ffffffffffffffffffffffffffffffffffffffff16815260200190815260200160002082908060018154018082558091505060019003906000526020600020906004020160009091909190915060008201518160000190816105b59190612751565b5060208201518160010190816105cb9190612751565b506040820151816002015560608201518160030190805190602001906105f29291906117c5565b505050808061060090612881565b915050610514565b505050505050565b6001818154811061062057600080fd5b906000526020600020906003020160009150905080600001805461064390612574565b80601f016020809104026020016040519081016040528092919081815260200182805461066f90612574565b80156106bc5780601f10610691576101008083540402835291602001916106bc565b820191906000526020600020905b81548152906001019060200180831161069f57829003601f168201915b5050505050908060010160009054906101000a900473ffffffffffffffffffffffffffffffffffffffff16908060020180546106f790612574565b80601f016020809104026020016040519081016040528092919081815260200182805461072390612574565b80156107705780601f1061074557610100808354040283529160200191610770565b820191906000526020600020905b81548152906001019060200180831161075357829003601f168201915b5050505050905083565b6060600560008373ffffffffffffffffffffffffffffffffffffffff1673ffffffffffffffffffffffffffffffffffffffff168152602001908152602001600020805480602002602001604051908101604052809291908181526020016000905b828210156109c9578382906000526020600020906004020160405180608001604052908160008201805461080e90612574565b80601f016020809104026020016040519081016040528092919081815260200182805461083a90612574565b80156108875780601f1061085c57610100808354040283529160200191610887565b820191906000526020600020905b81548152906001019060200180831161086a57829003601f168201915b505050505081526020016001820180546108a090612574565b80601f01602080910402602001604051908101604052809291908181526020018280546108cc90612574565b80156109195780601f106108ee57610100808354040283529160200191610919565b820191906000526020600020905b8154815290600101906020018083116108fc57829003601f168201915b5050505050815260200160028201548152602001600382018054806020026020016040519081016040528092919081815260200182805480156109b157602002820191906000526020600020905b8160009054906101000a900473ffffffffffffffffffffffffffffffffffffffff1673ffffffffffffffffffffffffffffffffffffffff1681526020019060010190808311610967575b505050505081525050815260200190600101906107db565b505050509050919050565b600381815481106109e457600080fd5b9060005260206000209060040201600091509050806000018054610a0790612574565b80601f0160208091040260200160405190810160405280929190818152602001828054610a3390612574565b8015610a805780601f10610a5557610100808354040283529160200191610a80565b820191906000526020600020905b815481529060010190602001808311610a6357829003601f168201915b505050505090806001018054610a9590612574565b80601f0160208091040260200160405190810160405280929190818152602001828054610ac190612574565b8015610b0e5780601f10610ae357610100808354040283529160200191610b0e565b820191906000526020600020905b815481529060010190602001808311610af157829003601f168201915b5050505050908060020154905083565b60028181548110610b2e57600080fd5b9060005260206000209060060201600091509050806000015490806001018054610b5790612574565b80601f0160208091040260200160405190810160405280929190818152602001828054610b8390612574565b8015610bd05780601f10610ba557610100808354040283529160200191610bd0565b820191906000526020600020905b815481529060010190602001808311610bb357829003601f168201915b5050505050908060020160009054906101000a900473ffffffffffffffffffffffffffffffffffffffff1690806003018054610c0b90612574565b80601f0160208091040260200160405190810160405280929190818152602001828054610c3790612574565b8015610c845780601f10610c5957610100808354040283529160200191610c84565b820191906000526020600020905b815481529060010190602001808311610c6757829003601f168201915b505050505090806004018054610c9990612574565b80601f0160208091040260200160405190810160405280929190818152602001828054610cc590612574565b8015610d125780601f10610ce757610100808354040283529160200191610d12565b820191906000526020600020905b815481529060010190602001808311610cf557829003601f168201915b505050505090806005018054610d2790612574565b80601f0160208091040260200160405190810160405280929190818152602001828054610d5390612574565b8015610da05780601f10610d7557610100808354040283529160200191610da0565b820191906000526020600020905b815481529060010190602001808311610d8357829003601f168201915b5050505050905086565b60006040518060c001604052808781526020018681526020013373ffffffffffffffffffffffffffffffffffffffff1681526020018581526020018481526020018381525090506002819080600181540180825580915050600190039060005260206000209060060201600090919091909150600082015181600001556020820151816001019081610e3c9190612751565b5060408201518160020160006101000a81548173ffffffffffffffffffffffffffffffffffffffff021916908373ffffffffffffffffffffffffffffffffffffffff1602179055506060820151816003019081610e999190612751565b506080820151816004019081610eaf9190612751565b5060a0820151816005019081610ec59190612751565b505050600685604051610ed89190612905565b9081526020016040518091039020819080600181540180825580915050600190039060005260206000209060060201600090919091909150600082015181600001556020820151816001019081610f2f9190612751565b5060408201518160020160006101000a81548173ffffffffffffffffffffffffffffffffffffffff021916908373ffffffffffffffffffffffffffffffffffffffff1602179055506060820151816003019081610f8c9190612751565b506080820151816004019081610fa29190612751565b5060a0820151816005019081610fb89190612751565b505050505050505050565b6060600682604051610fd59190612905565b9081526020016040518091039020805480602002602001604051908101604052809291908181526020016000905b828210156112dd57838290600052602060002090600602016040518060c00160405290816000820154815260200160018201805461104090612574565b80601f016020809104026020016040519081016040528092919081815260200182805461106c90612574565b80156110b95780601f1061108e576101008083540402835291602001916110b9565b820191906000526020600020905b81548152906001019060200180831161109c57829003601f168201915b505050505081526020016002820160009054906101000a900473ffffffffffffffffffffffffffffffffffffffff1673ffffffffffffffffffffffffffffffffffffffff1673ffffffffffffffffffffffffffffffffffffffff16815260200160038201805461112890612574565b80601f016020809104026020016040519081016040528092919081815260200182805461115490612574565b80156111a15780601f10611176576101008083540402835291602001916111a1565b820191906000526020600020905b81548152906001019060200180831161118457829003601f168201915b505050505081526020016004820180546111ba90612574565b80601f01602080910402602001604051908101604052809291908181526020018280546111e690612574565b80156112335780601f1061120857610100808354040283529160200191611233565b820191906000526020600020905b81548152906001019060200180831161121657829003601f168201915b5050505050815260200160058201805461124c90612574565b80601f016020809104026020016040519081016040528092919081815260200182805461127890612574565b80156112c55780601f1061129a576101008083540402835291602001916112c5565b820191906000526020600020905b8154815290600101906020018083116112a857829003601f168201915b50505050508152505081526020019060010190611003565b505050509050919050565b600060405180606001604052808581526020018473ffffffffffffffffffffffffffffffffffffffff1681526020018381525090506001819080600181540180825580915050600190039060005260206000209060030201600090919091909150600082015181600001908161135e9190612751565b5060208201518160010160006101000a81548173ffffffffffffffffffffffffffffffffffffffff021916908373ffffffffffffffffffffffffffffffffffffffff16021790555060408201518160020190816113bb9190612751565b5050508060046000836020015173ffffffffffffffffffffffffffffffffffffffff1673ffffffffffffffffffffffffffffffffffffffff16815260200190815260200160002060008201518160000190816114179190612751565b5060208201518160010160006101000a81548173ffffffffffffffffffffffffffffffffffffffff021916908373ffffffffffffffffffffffffffffffffffffffff16021790555060408201518160020190816114749190612751565b5090505050505050565b60008054906101000a900473ffffffffffffffffffffffffffffffffffffffff1681565b6060600460008373ffffffffffffffffffffffffffffffffffffffff1673ffffffffffffffffffffffffffffffffffffffff16815260200190815260200160002060020180546114f190612574565b80601f016020809104026020016040519081016040528092919081815260200182805461151d90612574565b801561156a5780601f1061153f5761010080835404028352916020019161156a565b820191906000526020600020905b81548152906001019060200180831161154d57829003601f168201915b50505050509050919050565b60008060008060005b6001805490508110156117be5760405160200161159b90612968565b60405160208183030381529060405280519060200120600182815481106115c5576115c4612823565b5b90600052602060002090600302016002016040516020016115e69190612a00565b604051602081830303815290604052805190602001200361161457848061160c90612881565b9550506117ab565b60405160200161162390612a63565b604051602081830303815290604052805190602001206001828154811061164d5761164c612823565b5b906000526020600020906003020160020160405160200161166e9190612a00565b604051602081830303815290604052805190602001200361169c57838061169490612881565b9450506117aa565b6040516020016116ab90612ac4565b60405160208183030381529060405280519060200120600182815481106116d5576116d4612823565b5b90600052602060002090600302016002016040516020016116f69190612a00565b604051602081830303815290604052805190602001200361172457828061171c90612881565b9350506117a9565b60405160200161173390612b25565b604051602081830303815290604052805190602001206001828154811061175d5761175c612823565b5b906000526020600020906003020160020160405160200161177e9190612a00565b60405160208183030381529060405280519060200120036117a85781806117a490612881565b9250505b5b5b5b80806117b690612881565b91505061157f565b5090919293565b82805482825590600052602060002090810192821561183e579160200282015b8281111561183d5782518260006101000a81548173ffffffffffffffffffffffffffffffffffffffff021916908373ffffffffffffffffffffffffffffffffffffffff160217905550916020019190600101906117e5565b5b50905061184b919061184f565b5090565b5b80821115611868576000816000905550600101611850565b5090565b600081519050919050565b600082825260208201905092915050565b6000819050602082019050919050565b600081519050919050565b600082825260208201905092915050565b60005b838110156118d25780820151818401526020810190506118b7565b60008484015250505050565b6000601f19601f8301169050919050565b60006118fa82611898565b61190481856118a3565b93506119148185602086016118b4565b61191d816118de565b840191505092915050565b600073ffffffffffffffffffffffffffffffffffffffff82169050919050565b600061195382611928565b9050919050565b61196381611948565b82525050565b6000606083016000830151848203600086015261198682826118ef565b915050602083015161199b602086018261195a565b50604083015184820360408601526119b382826118ef565b9150508091505092915050565b60006119cc8383611969565b905092915050565b6000602082019050919050565b60006119ec8261186c565b6119f68185611877565b935083602082028501611a0885611888565b8060005b85811015611a445784840389528151611a2585826119c0565b9450611a30836119d4565b925060208a01995050600181019050611a0c565b50829750879550505050505092915050565b60006020820190508181036000830152611a7081846119e1565b905092915050565b6000604051905090565b600080fd5b600080fd5b600080fd5b600080fd5b7f4e487b7100000000000000000000000000000000000000000000000000000000600052604160045260246000fd5b611ace826118de565b810181811067ffffffffffffffff82111715611aed57611aec611a96565b5b80604052505050565b6000611b00611a78565b9050611b0c8282611ac5565b919050565b600067ffffffffffffffff821115611b2c57611b2b611a96565b5b611b35826118de565b9050602081019050919050565b82818337600083830152505050565b6000611b64611b5f84611b11565b611af6565b905082815260208101848484011115611b8057611b7f611a91565b5b611b8b848285611b42565b509392505050565b600082601f830112611ba857611ba7611a8c565b5b8135611bb8848260208601611b51565b91505092915050565b6000819050919050565b611bd481611bc1565b8114611bdf57600080fd5b50565b600081359050611bf181611bcb565b92915050565b600067ffffffffffffffff821115611c1257611c11611a96565b5b602082029050602081019050919050565b600080fd5b611c3181611948565b8114611c3c57600080fd5b50565b600081359050611c4e81611c28565b92915050565b6000611c67611c6284611bf7565b611af6565b90508083825260208201905060208402830185811115611c8a57611c89611c23565b5b835b81811015611cb35780611c9f8882611c3f565b845260208401935050602081019050611c8c565b5050509392505050565b600082601f830112611cd257611cd1611a8c565b5b8135611ce2848260208601611c54565b91505092915050565b60008060008060808587031215611d0557611d04611a82565b5b600085013567ffffffffffffffff811115611d2357611d22611a87565b5b611d2f87828801611b93565b945050602085013567ffffffffffffffff811115611d5057611d4f611a87565b5b611d5c87828801611b93565b9350506040611d6d87828801611be2565b925050606085013567ffffffffffffffff811115611d8e57611d8d611a87565b5b611d9a87828801611cbd565b91505092959194509250565b600060208284031215611dbc57611dbb611a82565b5b6000611dca84828501611be2565b91505092915050565b600082825260208201905092915050565b6000611def82611898565b611df98185611dd3565b9350611e098185602086016118b4565b611e12816118de565b840191505092915050565b611e2681611948565b82525050565b60006060820190508181036000830152611e468186611de4565b9050611e556020830185611e1d565b8181036040830152611e678184611de4565b9050949350505050565b600060208284031215611e8757611e86611a82565b5b6000611e9584828501611c3f565b91505092915050565b600081519050919050565b600082825260208201905092915050565b6000819050602082019050919050565b611ed381611bc1565b82525050565b600081519050919050565b600082825260208201905092915050565b6000819050602082019050919050565b6000611f11838361195a565b60208301905092915050565b6000602082019050919050565b6000611f3582611ed9565b611f3f8185611ee4565b9350611f4a83611ef5565b8060005b83811015611f7b578151611f628882611f05565b9750611f6d83611f1d565b925050600181019050611f4e565b5085935050505092915050565b60006080830160008301518482036000860152611fa582826118ef565b91505060208301518482036020860152611fbf82826118ef565b9150506040830151611fd46040860182611eca565b5060608301518482036060860152611fec8282611f2a565b9150508091505092915050565b60006120058383611f88565b905092915050565b6000602082019050919050565b600061202582611e9e565b61202f8185611ea9565b93508360208202850161204185611eba565b8060005b8581101561207d578484038952815161205e8582611ff9565b94506120698361200d565b925060208a01995050600181019050612045565b50829750879550505050505092915050565b600060208201905081810360008301526120a9818461201a565b905092915050565b6120ba81611bc1565b82525050565b600060608201905081810360008301526120da8186611de4565b905081810360208301526120ee8185611de4565b90506120fd60408301846120b1565b949350505050565b600060c08201905061211a60008301896120b1565b818103602083015261212c8188611de4565b905061213b6040830187611e1d565b818103606083015261214d8186611de4565b905081810360808301526121618185611de4565b905081810360a08301526121758184611de4565b9050979650505050505050565b600080600080600060a0868803121561219e5761219d611a82565b5b60006121ac88828901611be2565b955050602086013567ffffffffffffffff8111156121cd576121cc611a87565b5b6121d988828901611b93565b945050604086013567ffffffffffffffff8111156121fa576121f9611a87565b5b61220688828901611b93565b935050606086013567ffffffffffffffff81111561222757612226611a87565b5b61223388828901611b93565b925050608086013567ffffffffffffffff81111561225457612253611a87565b5b61226088828901611b93565b9150509295509295909350565b60006020828403121561228357612282611a82565b5b600082013567ffffffffffffffff8111156122a1576122a0611a87565b5b6122ad84828501611b93565b91505092915050565b600081519050919050565b600082825260208201905092915050565b6000819050602082019050919050565b600060c0830160008301516122fa6000860182611eca565b506020830151848203602086015261231282826118ef565b9150506040830151612327604086018261195a565b506060830151848203606086015261233f82826118ef565b9150506080830151848203608086015261235982826118ef565b91505060a083015184820360a086015261237382826118ef565b9150508091505092915050565b600061238c83836122e2565b905092915050565b6000602082019050919050565b60006123ac826122b6565b6123b681856122c1565b9350836020820285016123c8856122d2565b8060005b8581101561240457848403895281516123e58582612380565b94506123f083612394565b925060208a019950506001810190506123cc565b50829750879550505050505092915050565b6000602082019050818103600083015261243081846123a1565b905092915050565b60008060006060848603121561245157612450611a82565b5b600084013567ffffffffffffffff81111561246f5761246e611a87565b5b61247b86828701611b93565b935050602061248c86828701611c3f565b925050604084013567ffffffffffffffff8111156124ad576124ac611a87565b5b6124b986828701611b93565b9150509250925092565b60006020820190506124d86000830184611e1d565b92915050565b600060208201905081810360008301526124f88184611de4565b905092915050565b600060808201905061251560008301876120b1565b61252260208301866120b1565b61252f60408301856120b1565b61253c60608301846120b1565b95945050505050565b7f4e487b7100000000000000000000000000000000000000000000000000000000600052602260045260246000fd5b6000600282049050600182168061258c57607f821691505b60208210810361259f5761259e612545565b5b50919050565b60008190508160005260206000209050919050565b60006020601f8301049050919050565b600082821b905092915050565b6000600883026126077fffffffffffffffffffffffffffffffffffffffffffffffffffffffffffffffff826125ca565b61261186836125ca565b95508019841693508086168417925050509392505050565b6000819050919050565b600061264e61264961264484611bc1565b612629565b611bc1565b9050919050565b6000819050919050565b61266883612633565b61267c61267482612655565b8484546125d7565b825550505050565b600090565b612691612684565b61269c81848461265f565b505050565b5b818110156126c0576126b5600082612689565b6001810190506126a2565b5050565b601f821115612705576126d6816125a5565b6126df846125ba565b810160208510156126ee578190505b6127026126fa856125ba565b8301826126a1565b50505b505050565b600082821c905092915050565b60006127286000198460080261270a565b1980831691505092915050565b60006127418383612717565b9150826002028217905092915050565b61275a82611898565b67ffffffffffffffff81111561277357612772611a96565b5b61277d8254612574565b6127888282856126c4565b600060209050601f8311600181146127bb57600084156127a9578287015190505b6127b38582612735565b86555061281b565b601f1984166127c9866125a5565b60005b828110156127f1578489015182556001820191506020850194506020810190506127cc565b8683101561280e578489015161280a601f891682612717565b8355505b6001600288020188555050505b505050505050565b7f4e487b7100000000000000000000000000000000000000000000000000000000600052603260045260246000fd5b7f4e487b7100000000000000000000000000000000000000000000000000000000600052601160045260246000fd5b600061288c82611bc1565b91507fffffffffffffffffffffffffffffffffffffffffffffffffffffffffffffffff82036128be576128bd612852565b5b600182019050919050565b600081905092915050565b60006128df82611898565b6128e981856128c9565b93506128f98185602086016118b4565b80840191505092915050565b600061291182846128d4565b915081905092915050565b7f6a75646765000000000000000000000000000000000000000000000000000000600082015250565b60006129526005836128c9565b915061295d8261291c565b600582019050919050565b600061297382612945565b9150819050919050565b6000815461298a81612574565b61299481866128c9565b945060018216600081146129af57600181146129c4576129f7565b60ff19831686528115158202860193506129f7565b6129cd856125a5565b60005b838110156129ef578154818901526001820191506020810190506129d0565b838801955050505b50505092915050565b6000612a0c828461297d565b915081905092915050565b7f666f72656e736963000000000000000000000000000000000000000000000000600082015250565b6000612a4d6008836128c9565b9150612a5882612a17565b600882019050919050565b6000612a6e82612a40565b9150819050919050565b7f6c617720656e666f7263656d656e740000000000000000000000000000000000600082015250565b6000612aae600f836128c9565b9150612ab982612a78565b600f82019050919050565b6000612acf82612aa1565b9150819050919050565b7f70726f73656375746f7200000000000000000000000000000000000000000000600082015250565b6000612b0f600a836128c9565b9150612b1a82612ad9565b600a82019050919050565b6000612b3082612b02565b915081905091905056fea2646970667358221220fb6b9b7b33263f14ed06c84f1aa89f875c9a4ef49191aa35d920a024dff4a75164736f6c63430008130033",
  "linkReferences": {},
  "deployedLinkReferences": {}
}